{
  "abi": [
    {
      "inputs": [],
      "stateMutability": "nonpayable",
      "type": "constructor"
    },
    {
      "anonymous": false,
      "inputs": [
        {
          "indexed": true,
          "internalType": "address",
          "name": "owner",
          "type": "address"
        },
        {
          "indexed": true,
          "internalType": "address",
          "name": "approved",
          "type": "address"
        },
        {
          "indexed": true,
          "internalType": "uint256",
          "name": "tokenId",
          "type": "uint256"
        }
      ],
      "name": "Approval",
      "type": "event"
    },
    {
      "anonymous": false,
      "inputs": [
        {
          "indexed": true,
          "internalType": "address",
          "name": "owner",
          "type": "address"
        },
        {
          "indexed": true,
          "internalType": "address",
          "name": "operator",
          "type": "address"
        },
        {
          "indexed": false,
          "internalType": "bool",
          "name": "approved",
          "type": "bool"
        }
      ],
      "name": "ApprovalForAll",
      "type": "event"
    },
    {
      "anonymous": false,
      "inputs": [
        {
          "indexed": true,
          "internalType": "address",
          "name": "previousOwner",
          "type": "address"
        },
        {
          "indexed": true,
          "internalType": "address",
          "name": "newOwner",
          "type": "address"
        }
      ],
      "name": "OwnershipTransferred",
      "type": "event"
    },
    {
      "anonymous": false,
      "inputs": [
        {
          "indexed": false,
          "internalType": "address",
          "name": "minter",
          "type": "address"
        }
      ],
      "name": "SetMinter",
      "type": "event"
    },
    {
      "anonymous": false,
      "inputs": [
        {
          "indexed": true,
          "internalType": "address",
          "name": "from",
          "type": "address"
        },
        {
          "indexed": true,
          "internalType": "address",
          "name": "to",
          "type": "address"
        },
        {
          "indexed": true,
          "internalType": "uint256",
          "name": "tokenId",
          "type": "uint256"
        }
      ],
      "name": "Transfer",
      "type": "event"
    },
    {
      "inputs": [
        {
          "internalType": "address",
          "name": "to",
          "type": "address"
        },
        {
          "internalType": "uint256",
          "name": "tokenId",
          "type": "uint256"
        }
      ],
      "name": "approve",
      "outputs": [],
      "stateMutability": "nonpayable",
      "type": "function"
    },
    {
      "inputs": [
        {
          "internalType": "address",
          "name": "owner",
          "type": "address"
        }
      ],
      "name": "balanceOf",
      "outputs": [
        {
          "internalType": "uint256",
          "name": "",
          "type": "uint256"
        }
      ],
      "stateMutability": "view",
      "type": "function"
    },
    {
      "inputs": [],
      "name": "baseUri",
      "outputs": [
        {
          "internalType": "string",
          "name": "",
          "type": "string"
        }
      ],
      "stateMutability": "view",
      "type": "function"
    },
    {
      "inputs": [
        {
          "internalType": "uint256",
          "name": "tokenId",
          "type": "uint256"
        }
      ],
      "name": "getApproved",
      "outputs": [
        {
          "internalType": "address",
          "name": "",
          "type": "address"
        }
      ],
      "stateMutability": "view",
      "type": "function"
    },
    {
      "inputs": [],
      "name": "hasMintableNft",
      "outputs": [
        {
          "internalType": "bool",
          "name": "",
          "type": "bool"
        }
      ],
      "stateMutability": "view",
      "type": "function"
    },
    {
      "inputs": [
        {
          "internalType": "address",
          "name": "owner",
          "type": "address"
        },
        {
          "internalType": "address",
          "name": "operator",
          "type": "address"
        }
      ],
      "name": "isApprovedForAll",
      "outputs": [
        {
          "internalType": "bool",
          "name": "",
          "type": "bool"
        }
      ],
      "stateMutability": "view",
      "type": "function"
    },
    {
      "inputs": [
        {
          "internalType": "address",
          "name": "to",
          "type": "address"
        }
      ],
      "name": "mint",
      "outputs": [
        {
          "internalType": "uint256",
          "name": "tokenId",
          "type": "uint256"
        }
      ],
      "stateMutability": "nonpayable",
      "type": "function"
    },
    {
      "inputs": [],
      "name": "mintedTokenCount",
      "outputs": [
        {
          "internalType": "uint256",
          "name": "",
          "type": "uint256"
        }
      ],
      "stateMutability": "view",
      "type": "function"
    },
    {
      "inputs": [],
      "name": "minter",
      "outputs": [
        {
          "internalType": "address",
          "name": "",
          "type": "address"
        }
      ],
      "stateMutability": "view",
      "type": "function"
    },
    {
      "inputs": [],
      "name": "name",
      "outputs": [
        {
          "internalType": "string",
          "name": "",
          "type": "string"
        }
      ],
      "stateMutability": "view",
      "type": "function"
    },
    {
      "inputs": [],
      "name": "owner",
      "outputs": [
        {
          "internalType": "address",
          "name": "",
          "type": "address"
        }
      ],
      "stateMutability": "view",
      "type": "function"
    },
    {
      "inputs": [
        {
          "internalType": "uint256",
          "name": "tokenId",
          "type": "uint256"
        }
      ],
      "name": "ownerOf",
      "outputs": [
        {
          "internalType": "address",
          "name": "",
          "type": "address"
        }
      ],
      "stateMutability": "view",
      "type": "function"
    },
    {
      "inputs": [
        {
          "internalType": "string",
          "name": "_baseUri",
          "type": "string"
        }
      ],
      "name": "registerBaseUri",
      "outputs": [],
      "stateMutability": "nonpayable",
      "type": "function"
    },
    {
      "inputs": [
        {
          "internalType": "uint256",
          "name": "_tokenId",
          "type": "uint256"
        },
        {
          "internalType": "string",
          "name": "_ext",
          "type": "string"
        }
      ],
      "name": "registerUriExtension",
      "outputs": [],
      "stateMutability": "nonpayable",
      "type": "function"
    },
    {
      "inputs": [],
      "name": "renounceOwnership",
      "outputs": [],
      "stateMutability": "nonpayable",
      "type": "function"
    },
    {
      "inputs": [
        {
          "internalType": "address",
          "name": "from",
          "type": "address"
        },
        {
          "internalType": "address",
          "name": "to",
          "type": "address"
        },
        {
          "internalType": "uint256",
          "name": "tokenId",
          "type": "uint256"
        }
      ],
      "name": "safeTransferFrom",
      "outputs": [],
      "stateMutability": "nonpayable",
      "type": "function"
    },
    {
      "inputs": [
        {
          "internalType": "address",
          "name": "from",
          "type": "address"
        },
        {
          "internalType": "address",
          "name": "to",
          "type": "address"
        },
        {
          "internalType": "uint256",
          "name": "tokenId",
          "type": "uint256"
        },
        {
          "internalType": "bytes",
          "name": "data",
          "type": "bytes"
        }
      ],
      "name": "safeTransferFrom",
      "outputs": [],
      "stateMutability": "nonpayable",
      "type": "function"
    },
    {
      "inputs": [
        {
          "internalType": "address",
          "name": "operator",
          "type": "address"
        },
        {
          "internalType": "bool",
          "name": "approved",
          "type": "bool"
        }
      ],
      "name": "setApprovalForAll",
      "outputs": [],
      "stateMutability": "nonpayable",
      "type": "function"
    },
    {
      "inputs": [
        {
          "internalType": "address",
          "name": "_minter",
          "type": "address"
        }
      ],
      "name": "setMinter",
      "outputs": [],
      "stateMutability": "nonpayable",
      "type": "function"
    },
    {
      "inputs": [
        {
          "internalType": "bytes4",
          "name": "interfaceId",
          "type": "bytes4"
        }
      ],
      "name": "supportsInterface",
      "outputs": [
        {
          "internalType": "bool",
          "name": "",
          "type": "bool"
        }
      ],
      "stateMutability": "pure",
      "type": "function"
    },
    {
      "inputs": [],
      "name": "symbol",
      "outputs": [
        {
          "internalType": "string",
          "name": "",
          "type": "string"
        }
      ],
      "stateMutability": "view",
      "type": "function"
    },
    {
      "inputs": [
        {
          "internalType": "uint256",
          "name": "tokenId",
          "type": "uint256"
        }
      ],
      "name": "tokenURI",
      "outputs": [
        {
          "internalType": "string",
          "name": "",
          "type": "string"
        }
      ],
      "stateMutability": "view",
      "type": "function"
    },
    {
      "inputs": [
        {
          "internalType": "address",
          "name": "from",
          "type": "address"
        },
        {
          "internalType": "address",
          "name": "to",
          "type": "address"
        },
        {
          "internalType": "uint256",
          "name": "tokenId",
          "type": "uint256"
        }
      ],
      "name": "transferFrom",
      "outputs": [],
      "stateMutability": "nonpayable",
      "type": "function"
    },
    {
      "inputs": [
        {
          "internalType": "address",
          "name": "newOwner",
          "type": "address"
        }
      ],
      "name": "transferOwnership",
      "outputs": [],
      "stateMutability": "nonpayable",
      "type": "function"
    },
    {
      "inputs": [
        {
          "internalType": "uint256",
          "name": "",
          "type": "uint256"
        }
      ],
      "name": "uriExtensions",
      "outputs": [
        {
          "internalType": "string",
          "name": "",
          "type": "string"
        }
      ],
      "stateMutability": "view",
      "type": "function"
    }
  ],
  "bytecode": {
    "object": "0x60806040523480156200001157600080fd5b506040518060400160405280600781526020016630784a5045477360c81b815250604051806040016040528060038152602001624a504760e81b81525081600090816200005f91906200018c565b5060016200006e82826200018c565b5050506200008b620000856200009160201b60201c565b62000095565b62000258565b3390565b600680546001600160a01b038381166001600160a01b0319831681179093556040519116919082907f8be0079c531659141344cd1fd0a4f28419497f9722a3daafe3b4186f6b6457e090600090a35050565b634e487b7160e01b600052604160045260246000fd5b600181811c908216806200011257607f821691505b6020821081036200013357634e487b7160e01b600052602260045260246000fd5b50919050565b601f8211156200018757600081815260208120601f850160051c81016020861015620001625750805b601f850160051c820191505b8181101562000183578281556001016200016e565b5050505b505050565b81516001600160401b03811115620001a857620001a8620000e7565b620001c081620001b98454620000fd565b8462000139565b602080601f831160018114620001f85760008415620001df5750858301515b600019600386901b1c1916600185901b17855562000183565b600085815260208120601f198616915b82811015620002295788860151825594840194600190910190840162000208565b5085821015620002485787850151600019600388901b60f8161c191681555b5050505050600190811b01905550565b6118f680620002686000396000f3fe608060405234801561001057600080fd5b50600436106101735760003560e01c80638da5cb5b116100de578063dc613fa111610097578063e985e9c511610071578063e985e9c514610318578063f2fde38b14610354578063fca3b5aa14610367578063fdf5a49f1461037a57600080fd5b8063dc613fa1146102df578063e055bf72146102f2578063e5fdcbda1461030557600080fd5b80638da5cb5b1461028557806395d89b41146102965780639abc83201461029e578063a22cb465146102a6578063b88d4fde146102b9578063c87b56dd146102cc57600080fd5b806323b872dd1161013057806323b872dd1461021057806342842e0e146102235780636352211e146102365780636a6278421461024957806370a082311461026a578063715018a61461027d57600080fd5b806301ffc9a71461017857806306fdde03146101a057806307546172146101b5578063081812fc146101e0578063095ea7b3146101f35780630e7e0a9314610208575b600080fd5b61018b61018636600461121c565b610383565b60405190151581526020015b60405180910390f35b6101a86103f0565b6040516101979190611289565b6007546101c8906001600160a01b031681565b6040516001600160a01b039091168152602001610197565b6101c86101ee36600461129c565b610482565b6102066102013660046112cc565b6104a9565b005b61018b6105c3565b61020661021e3660046112f6565b61066a565b6102066102313660046112f6565b61069b565b6101c861024436600461129c565b6106b6565b61025c610257366004611332565b610716565b604051908152602001610197565b61025c610278366004611332565b6107fb565b610206610881565b6006546001600160a01b03166101c8565b6101a8610895565b6101a86108a4565b6102066102b436600461134d565b610932565b6102066102c736600461139f565b610941565b6101a86102da36600461129c565b610979565b6102066102ed3660046114c4565b6109ea565b610206610300366004611506565b6109ff565b6101a861031336600461129c565b610a20565b61018b610326366004611552565b6001600160a01b03918216600090815260056020908152604080832093909416825291909152205460ff1690565b610206610362366004611332565b610a39565b610206610375366004611332565b610ab2565b61025c600a5481565b60006307f5828d60e41b6001600160e01b0319831614806103b457506307f5828d60e41b6001600160e01b03198316145b806103cf57506380ac58cd60e01b6001600160e01b03198316145b806103ea5750635b5e139f60e01b6001600160e01b03198316145b92915050565b6060600080546103ff90611585565b80601f016020809104026020016040519081016040528092919081815260200182805461042b90611585565b80156104785780601f1061044d57610100808354040283529160200191610478565b820191906000526020600020905b81548152906001019060200180831161045b57829003601f168201915b5050505050905090565b600061048d82610b0e565b506000908152600460205260409020546001600160a01b031690565b60006104b4826106b6565b9050806001600160a01b0316836001600160a01b0316036105265760405162461bcd60e51b815260206004820152602160248201527f4552433732313a20617070726f76616c20746f2063757272656e74206f776e656044820152603960f91b60648201526084015b60405180910390fd5b336001600160a01b038216148061054257506105428133610326565b6105b45760405162461bcd60e51b815260206004820152603d60248201527f4552433732313a20617070726f76652063616c6c6572206973206e6f7420746f60448201527f6b656e206f776e6572206f7220617070726f76656420666f7220616c6c000000606482015260840161051d565b6105be8383610b6d565b505050565b600a54600090815260096020526040812080548291906105e290611585565b80601f016020809104026020016040519081016040528092919081815260200182805461060e90611585565b801561065b5780601f106106305761010080835404028352916020019161065b565b820191906000526020600020905b81548152906001019060200180831161063e57829003601f168201915b50509251151595945050505050565b6106743382610bdb565b6106905760405162461bcd60e51b815260040161051d906115bf565b6105be838383610c5a565b6105be83838360405180602001604052806000815250610941565b6000818152600260205260408120546001600160a01b0316806103ea5760405162461bcd60e51b8152602060048201526018602482015277115490cdcc8c4e881a5b9d985b1a59081d1bdad95b88125160421b604482015260640161051d565b6007546000906001600160a01b031633146107735760405162461bcd60e51b815260206004820152601960248201527f63616c6c6572206973206e6f7420746865206d696e7465722e00000000000000604482015260640161051d565b61077b6105c3565b6107d65760405162461bcd60e51b815260206004820152602660248201527f5468657265206973206e6f7420616e206e667420617661696c61626c6520746f6044820152651036b4b73a1760d11b606482015260840161051d565b600a80549060006107e68361160c565b9190505590506107f68282610dbe565b919050565b60006001600160a01b0382166108655760405162461bcd60e51b815260206004820152602960248201527f4552433732313a2061646472657373207a65726f206973206e6f7420612076616044820152683634b21037bbb732b960b91b606482015260840161051d565b506001600160a01b031660009081526003602052604090205490565b610889610f49565b6108936000610fa3565b565b6060600180546103ff90611585565b600880546108b190611585565b80601f01602080910402602001604051908101604052809291908181526020018280546108dd90611585565b801561092a5780601f106108ff5761010080835404028352916020019161092a565b820191906000526020600020905b81548152906001019060200180831161090d57829003601f168201915b505050505081565b61093d338383610ff5565b5050565b61094b3383610bdb565b6109675760405162461bcd60e51b815260040161051d906115bf565b610973848484846110c3565b50505050565b606061098482610b0e565b600061098e6110f6565b905060008151116109ae57604051806020016040528060008152506109e3565b80600960008581526020019081526020016000206040516020016109d3929190611633565b6040516020818303038152906040525b9392505050565b6109f2610f49565b60086105be82848361170e565b610a07610f49565b600083815260096020526040902061097382848361170e565b600960205260009081526040902080546108b190611585565b610a41610f49565b6001600160a01b038116610aa65760405162461bcd60e51b815260206004820152602660248201527f4f776e61626c653a206e6577206f776e657220697320746865207a65726f206160448201526564647265737360d01b606482015260840161051d565b610aaf81610fa3565b50565b610aba610f49565b600780546001600160a01b0319166001600160a01b0383169081179091556040519081527fcec52196e972044edde8689a1b608e459c5946b7f3e5c8cd3d6d8e126d422e1c9060200160405180910390a150565b6000818152600260205260409020546001600160a01b0316610aaf5760405162461bcd60e51b8152602060048201526018602482015277115490cdcc8c4e881a5b9d985b1a59081d1bdad95b88125160421b604482015260640161051d565b600081815260046020526040902080546001600160a01b0319166001600160a01b0384169081179091558190610ba2826106b6565b6001600160a01b03167f8c5be1e5ebec7d5bd14f71427d1e84f3dd0314c0f7b2291e5b200ac8c7c3b92560405160405180910390a45050565b600080610be7836106b6565b9050806001600160a01b0316846001600160a01b03161480610c2e57506001600160a01b0380821660009081526005602090815260408083209388168352929052205460ff165b80610c525750836001600160a01b0316610c4784610482565b6001600160a01b0316145b949350505050565b826001600160a01b0316610c6d826106b6565b6001600160a01b031614610c935760405162461bcd60e51b815260040161051d906117cf565b6001600160a01b038216610cf55760405162461bcd60e51b8152602060048201526024808201527f4552433732313a207472616e7366657220746f20746865207a65726f206164646044820152637265737360e01b606482015260840161051d565b826001600160a01b0316610d08826106b6565b6001600160a01b031614610d2e5760405162461bcd60e51b815260040161051d906117cf565b600081815260046020908152604080832080546001600160a01b03199081169091556001600160a01b0387811680865260038552838620805460001901905590871680865283862080546001019055868652600290945282852080549092168417909155905184937fddf252ad1be2c89b69c2b068fc378daa952ba7f163c4a11628f55a4df523b3ef91a4505050565b6001600160a01b038216610e145760405162461bcd60e51b815260206004820181905260248201527f4552433732313a206d696e7420746f20746865207a65726f2061646472657373604482015260640161051d565b6000818152600260205260409020546001600160a01b031615610e795760405162461bcd60e51b815260206004820152601c60248201527f4552433732313a20746f6b656e20616c7265616479206d696e74656400000000604482015260640161051d565b6000818152600260205260409020546001600160a01b031615610ede5760405162461bcd60e51b815260206004820152601c60248201527f4552433732313a20746f6b656e20616c7265616479206d696e74656400000000604482015260640161051d565b6001600160a01b038216600081815260036020908152604080832080546001019055848352600290915280822080546001600160a01b0319168417905551839291907fddf252ad1be2c89b69c2b068fc378daa952ba7f163c4a11628f55a4df523b3ef908290a45050565b6006546001600160a01b031633146108935760405162461bcd60e51b815260206004820181905260248201527f4f776e61626c653a2063616c6c6572206973206e6f7420746865206f776e6572604482015260640161051d565b600680546001600160a01b038381166001600160a01b0319831681179093556040519116919082907f8be0079c531659141344cd1fd0a4f28419497f9722a3daafe3b4186f6b6457e090600090a35050565b816001600160a01b0316836001600160a01b0316036110565760405162461bcd60e51b815260206004820152601960248201527f4552433732313a20617070726f766520746f2063616c6c657200000000000000604482015260640161051d565b6001600160a01b03838116600081815260056020908152604080832094871680845294825291829020805460ff191686151590811790915591519182527f17307eab39ab6107e8899845ad3d59bd9653f200f220920489ca2b5937696c31910160405180910390a3505050565b6110ce848484610c5a565b6110da84848484611105565b6109735760405162461bcd60e51b815260040161051d90611814565b6060600880546103ff90611585565b60006001600160a01b0384163b156111fb57604051630a85bd0160e11b81526001600160a01b0385169063150b7a0290611149903390899088908890600401611866565b6020604051808303816000875af1925050508015611184575060408051601f3d908101601f19168201909252611181918101906118a3565b60015b6111e1573d8080156111b2576040519150601f19603f3d011682016040523d82523d6000602084013e6111b7565b606091505b5080516000036111d95760405162461bcd60e51b815260040161051d90611814565b805181602001fd5b6001600160e01b031916630a85bd0160e11b149050610c52565b506001949350505050565b6001600160e01b031981168114610aaf57600080fd5b60006020828403121561122e57600080fd5b81356109e381611206565b60005b8381101561125457818101518382015260200161123c565b50506000910152565b60008151808452611275816020860160208601611239565b601f01601f19169290920160200192915050565b6020815260006109e3602083018461125d565b6000602082840312156112ae57600080fd5b5035919050565b80356001600160a01b03811681146107f657600080fd5b600080604083850312156112df57600080fd5b6112e8836112b5565b946020939093013593505050565b60008060006060848603121561130b57600080fd5b611314846112b5565b9250611322602085016112b5565b9150604084013590509250925092565b60006020828403121561134457600080fd5b6109e3826112b5565b6000806040838503121561136057600080fd5b611369836112b5565b91506020830135801515811461137e57600080fd5b809150509250929050565b634e487b7160e01b600052604160045260246000fd5b600080600080608085870312156113b557600080fd5b6113be856112b5565b93506113cc602086016112b5565b925060408501359150606085013567ffffffffffffffff808211156113f057600080fd5b818701915087601f83011261140457600080fd5b81358181111561141657611416611389565b604051601f8201601f19908116603f0116810190838211818310171561143e5761143e611389565b816040528281528a602084870101111561145757600080fd5b82602086016020830137600060208483010152809550505050505092959194509250565b60008083601f84011261148d57600080fd5b50813567ffffffffffffffff8111156114a557600080fd5b6020830191508360208285010111156114bd57600080fd5b9250929050565b600080602083850312156114d757600080fd5b823567ffffffffffffffff8111156114ee57600080fd5b6114fa8582860161147b565b90969095509350505050565b60008060006040848603121561151b57600080fd5b83359250602084013567ffffffffffffffff81111561153957600080fd5b6115458682870161147b565b9497909650939450505050565b6000806040838503121561156557600080fd5b61156e836112b5565b915061157c602084016112b5565b90509250929050565b600181811c9082168061159957607f821691505b6020821081036115b957634e487b7160e01b600052602260045260246000fd5b50919050565b6020808252602d908201527f4552433732313a2063616c6c6572206973206e6f7420746f6b656e206f776e6560408201526c1c881bdc88185c1c1c9bdd9959609a1b606082015260800190565b60006001820161162c57634e487b7160e01b600052601160045260246000fd5b5060010190565b6000835160206116468285838901611239565b81840191506000855461165881611585565b600182811680156116705760018114611685576116b1565b60ff19841687528215158302870194506116b1565b896000528560002060005b848110156116a957815489820152908301908701611690565b505082870194505b50929998505050505050505050565b601f8211156105be57600081815260208120601f850160051c810160208610156116e75750805b601f850160051c820191505b81811015611706578281556001016116f3565b505050505050565b67ffffffffffffffff83111561172657611726611389565b61173a836117348354611585565b836116c0565b6000601f84116001811461176e57600085156117565750838201355b600019600387901b1c1916600186901b1783556117c8565b600083815260209020601f19861690835b8281101561179f578685013582556020948501946001909201910161177f565b50868210156117bc5760001960f88860031b161c19848701351681555b505060018560011b0183555b5050505050565b60208082526025908201527f4552433732313a207472616e736665722066726f6d20696e636f72726563742060408201526437bbb732b960d91b606082015260800190565b60208082526032908201527f4552433732313a207472616e7366657220746f206e6f6e20455243373231526560408201527131b2b4bb32b91034b6b83632b6b2b73a32b960711b606082015260800190565b6001600160a01b03858116825284166020820152604081018390526080606082018190526000906118999083018461125d565b9695505050505050565b6000602082840312156118b557600080fd5b81516109e38161120656fea264697066735822122077471e490be29cd60be884ac10c1bc2dc27258b0cb286c72bb15e2501fa4e7df64736f6c63430008110033",
    "linkReferences": {}
  },
  "methodIdentifiers": {
    "approve(address,uint256)": "095ea7b3",
    "balanceOf(address)": "70a08231",
    "baseUri()": "9abc8320",
    "getApproved(uint256)": "081812fc",
    "hasMintableNft()": "0e7e0a93",
    "isApprovedForAll(address,address)": "e985e9c5",
    "mint(address)": "6a627842",
    "mintedTokenCount()": "fdf5a49f",
    "minter()": "07546172",
    "name()": "06fdde03",
    "owner()": "8da5cb5b",
    "ownerOf(uint256)": "6352211e",
    "registerBaseUri(string)": "dc613fa1",
    "registerUriExtension(uint256,string)": "e055bf72",
    "renounceOwnership()": "715018a6",
    "safeTransferFrom(address,address,uint256)": "42842e0e",
    "safeTransferFrom(address,address,uint256,bytes)": "b88d4fde",
    "setApprovalForAll(address,bool)": "a22cb465",
    "setMinter(address)": "fca3b5aa",
    "supportsInterface(bytes4)": "01ffc9a7",
    "symbol()": "95d89b41",
    "tokenURI(uint256)": "c87b56dd",
    "transferFrom(address,address,uint256)": "23b872dd",
    "transferOwnership(address)": "f2fde38b",
    "uriExtensions(uint256)": "e5fdcbda"
  },
  "id": 0
}