{
  "address": "0x3FA2a710684BB6C7805c40D0f429Bce6836f351b",
  "abi": [
    {
      "inputs": [
        {
          "internalType": "address",
          "name": "_mintableNFT",
          "type": "address"
        },
        {
          "internalType": "address",
          "name": "_currencyToken",
          "type": "address"
        }
      ],
      "stateMutability": "nonpayable",
      "type": "constructor"
    },
    {
      "anonymous": false,
      "inputs": [],
      "name": "AuctionPaused",
      "type": "event"
    },
    {
      "anonymous": false,
      "inputs": [],
      "name": "AuctionStarted",
      "type": "event"
    },
    {
      "anonymous": false,
      "inputs": [
        {
          "indexed": false,
          "internalType": "address",
          "name": "buyer",
          "type": "address"
        },
        {
          "indexed": false,
          "internalType": "uint256",
          "name": "tokenId",
          "type": "uint256"
        },
        {
          "indexed": false,
          "internalType": "uint256",
          "name": "price",
          "type": "uint256"
        }
      ],
      "name": "Buyout",
      "type": "event"
    },
    {
      "anonymous": false,
      "inputs": [
        {
          "indexed": true,
          "internalType": "address",
          "name": "previousOwner",
          "type": "address"
        },
        {
          "indexed": true,
          "internalType": "address",
          "name": "newOwner",
          "type": "address"
        }
      ],
      "name": "OwnershipTransferred",
      "type": "event"
    },
    {
      "inputs": [],
      "name": "auctionStarted",
      "outputs": [
        {
          "internalType": "bool",
          "name": "",
          "type": "bool"
        }
      ],
      "stateMutability": "view",
      "type": "function"
    },
    {
      "inputs": [
        {
          "internalType": "uint256",
          "name": "amount",
          "type": "uint256"
        },
        {
          "internalType": "address",
          "name": "recipient",
          "type": "address"
        }
      ],
      "name": "buyout",
      "outputs": [],
      "stateMutability": "nonpayable",
      "type": "function"
    },
    {
      "inputs": [],
      "name": "currencyToken",
      "outputs": [
        {
          "internalType": "address",
          "name": "",
          "type": "address"
        }
      ],
      "stateMutability": "view",
      "type": "function"
    },
    {
      "inputs": [
        {
          "internalType": "uint256",
          "name": "blockNumber",
          "type": "uint256"
        }
      ],
      "name": "getMintPrice",
      "outputs": [
        {
          "internalType": "uint256",
          "name": "",
          "type": "uint256"
        }
      ],
      "stateMutability": "view",
      "type": "function"
    },
    {
      "inputs": [],
      "name": "lastEpochStartBlockNumber",
      "outputs": [
        {
          "internalType": "uint256",
          "name": "",
          "type": "uint256"
        }
      ],
      "stateMutability": "view",
      "type": "function"
    },
    {
      "inputs": [],
      "name": "mintableNFT",
      "outputs": [
        {
          "internalType": "address",
          "name": "",
          "type": "address"
        }
      ],
      "stateMutability": "view",
      "type": "function"
    },
    {
      "inputs": [],
      "name": "owner",
      "outputs": [
        {
          "internalType": "address",
          "name": "",
          "type": "address"
        }
      ],
      "stateMutability": "view",
      "type": "function"
    },
    {
      "inputs": [],
      "name": "pauseAuction",
      "outputs": [],
      "stateMutability": "nonpayable",
      "type": "function"
    },
    {
      "inputs": [
        {
          "internalType": "address",
          "name": "from",
          "type": "address"
        },
        {
          "internalType": "uint256",
          "name": "amount",
          "type": "uint256"
        },
        {
          "internalType": "address",
          "name": "token",
          "type": "address"
        },
        {
          "internalType": "bytes",
          "name": "data",
          "type": "bytes"
        }
      ],
      "name": "receiveApproval",
      "outputs": [
        {
          "internalType": "bool",
          "name": "success",
          "type": "bool"
        }
      ],
      "stateMutability": "nonpayable",
      "type": "function"
    },
    {
      "inputs": [],
      "name": "renounceOwnership",
      "outputs": [],
      "stateMutability": "nonpayable",
      "type": "function"
    },
    {
      "inputs": [],
      "name": "startAuction",
      "outputs": [],
      "stateMutability": "nonpayable",
      "type": "function"
    },
    {
      "inputs": [
        {
          "internalType": "address",
          "name": "newOwner",
          "type": "address"
        }
      ],
      "name": "transferOwnership",
      "outputs": [],
      "stateMutability": "nonpayable",
      "type": "function"
    }
  ],
  "transactionHash": "0x92a3ba6022fabbf25a0ceb5c770aac1638307c66952dc19033fd30adc50721e9",
  "args": [
    "0xB87DFb31f2029F361f851784898f7F772841C5D0",
    "0xab89a7742cb10e7bce98540fd05c7d731839cf9f"
  ],
  "solcInputHash": "32dc1b17f33c48da4fbe9c62dd34130a",
  "bytecode": "0x60c060405234801561001057600080fd5b50604051610cb4380380610cb483398101604081905261002f916100bb565b6100383361004f565b6001600160a01b039182166080521660a0526100ee565b600080546001600160a01b038381166001600160a01b0319831681178455604051919092169283917f8be0079c531659141344cd1fd0a4f28419497f9722a3daafe3b4186f6b6457e09190a35050565b80516001600160a01b03811681146100b657600080fd5b919050565b600080604083850312156100ce57600080fd5b6100d78361009f565b91506100e56020840161009f565b90509250929050565b60805160a051610b7f6101356000396000818160f9015281816102640152610421015260008181610185015281816104b10152818161056f01526106a90152610b7f6000f3fe608060405234801561001057600080fd5b50600436106100b45760003560e01c80638f4ffcb1116100715780638f4ffcb11461015457806393c39bf914610177578063a22cf5be14610180578063b9ae7364146101a7578063ee2679bc146101af578063f2fde38b146101bc57600080fd5b80633700d545146100b9578063559e775b146100ce5780636b2fa374146100f45780636b64c76914610133578063715018a61461013b5780638da5cb5b14610143575b600080fd5b6100cc6100c7366004610862565b6101cf565b005b6100e16100dc36600461088e565b6101de565b6040519081526020015b60405180910390f35b61011b7f000000000000000000000000000000000000000000000000000000000000000081565b6040516001600160a01b0390911681526020016100eb565b6100cc61023c565b6100cc61024e565b6000546001600160a01b031661011b565b6101676101623660046108bd565b610260565b60405190151581526020016100eb565b6100e160015481565b61011b7f000000000000000000000000000000000000000000000000000000000000000081565b6100cc6102b6565b6002546101679060ff1681565b6100cc6101ca366004610999565b6102c6565b6101da338383610344565b5050565b60025460009060ff166101f65750637d2b7500919050565b60006001548361020691906109ca565b9050610235637d2b750061023061021e600285610ac5565b610229906064610ad4565b60c8610613565b610613565b9392505050565b61024461064d565b61024c6106a7565b565b61025661064d565b61024c60006107c1565b60007f00000000000000000000000000000000000000000000000000000000000000006001600160a01b0316836001600160a01b0316146102a057600080fd5b6102ab858587610344565b506001949350505050565b6102be61064d565b61024c610811565b6102ce61064d565b6001600160a01b0381166103385760405162461bcd60e51b815260206004820152602660248201527f4f776e61626c653a206e6577206f776e657220697320746865207a65726f206160448201526564647265737360d01b60648201526084015b60405180910390fd5b610341816107c1565b50565b436000610350826101de565b9050808410156103995760405162461bcd60e51b815260206004820152601460248201527324b739bab33334b1b4b2b73a1030b6b7bab73a1760611b604482015260640161032f565b60025460ff166103eb5760405162461bcd60e51b815260206004820152601760248201527f41756374696f6e206973206e6f7420737461727465642e000000000000000000604482015260640161032f565b6002805460ff191690556040516323b872dd60e01b81526001600160a01b038681166004830152306024830152604482018390527f000000000000000000000000000000000000000000000000000000000000000016906323b872dd906064016020604051808303816000875af115801561046a573d6000803e3d6000fd5b505050506040513d601f19601f8201168201806040525081019061048e9190610aec565b506040516335313c2160e11b81526001600160a01b0384811660048301526000917f000000000000000000000000000000000000000000000000000000000000000090911690636a627842906024016020604051808303816000875af11580156104fc573d6000803e3d6000fd5b505050506040513d601f19601f820116820180604052508101906105209190610b0e565b604080516001600160a01b0387168152602081018390529081018490529091507fd1cfbb468dd776e3efe927f92120359cbc23ee21d5124a3826a6d55f5c5247dd9060600160405180910390a17f00000000000000000000000000000000000000000000000000000000000000006001600160a01b0316630e7e0a936040518163ffffffff1660e01b81526004016020604051808303816000875af11580156105cd573d6000803e3d6000fd5b505050506040513d601f19601f820116820180604052508101906105f19190610aec565b15610603576105fe6106a7565b61060b565b61060b610811565b505050505050565b6000821561064157816106276001856109ca565b6106319190610b27565b61063c906001610ad4565b610644565b60005b90505b92915050565b6000546001600160a01b0316331461024c5760405162461bcd60e51b815260206004820181905260248201527f4f776e61626c653a2063616c6c6572206973206e6f7420746865206f776e6572604482015260640161032f565b7f00000000000000000000000000000000000000000000000000000000000000006001600160a01b0316630e7e0a936040518163ffffffff1660e01b81526004016020604051808303816000875af1158015610707573d6000803e3d6000fd5b505050506040513d601f19601f8201168201806040525081019061072b9190610aec565b6107835760405162461bcd60e51b815260206004820152602360248201527f5468657265206973206e6f206d696e7461626c65206e667420617661696c616260448201526236329760e91b606482015260840161032f565b6002805460ff191660019081179091554390556040517fc8f99b9ac2a284b93c3652b9f064a6706724088cdafa9e0a8437c026191b2f0390600090a1565b600080546001600160a01b038381166001600160a01b0319831681178455604051919092169283917f8be0079c531659141344cd1fd0a4f28419497f9722a3daafe3b4186f6b6457e09190a35050565b6002805460ff191690556040517f749d6d79623c8cbd2345906702c70ae75d4254a6c409047c16d52fa5a37ef69890600090a1565b80356001600160a01b038116811461085d57600080fd5b919050565b6000806040838503121561087557600080fd5b8235915061088560208401610846565b90509250929050565b6000602082840312156108a057600080fd5b5035919050565b634e487b7160e01b600052604160045260246000fd5b600080600080608085870312156108d357600080fd5b6108dc85610846565b9350602085013592506108f160408601610846565b9150606085013567ffffffffffffffff8082111561090e57600080fd5b818701915087601f83011261092257600080fd5b813581811115610934576109346108a7565b604051601f8201601f19908116603f0116810190838211818310171561095c5761095c6108a7565b816040528281528a602084870101111561097557600080fd5b82602086016020830137600060208483010152809550505050505092959194509250565b6000602082840312156109ab57600080fd5b61064482610846565b634e487b7160e01b600052601160045260246000fd5b6000828210156109dc576109dc6109b4565b500390565b600181815b80851115610a1c578160001904821115610a0257610a026109b4565b80851615610a0f57918102915b93841c93908002906109e6565b509250929050565b600082610a3357506001610647565b81610a4057506000610647565b8160018114610a565760028114610a6057610a7c565b6001915050610647565b60ff841115610a7157610a716109b4565b50506001821b610647565b5060208310610133831016604e8410600b8410161715610a9f575081810a610647565b610aa983836109e1565b8060001904821115610abd57610abd6109b4565b029392505050565b600061064460ff841683610a24565b60008219821115610ae757610ae76109b4565b500190565b600060208284031215610afe57600080fd5b8151801515811461023557600080fd5b600060208284031215610b2057600080fd5b5051919050565b600082610b4457634e487b7160e01b600052601260045260246000fd5b50049056fea2646970667358221220269f1d55a32eba3ba6eee2e50ff9ece5357062531885e734691d1bfc83c0738f64736f6c634300080d0033",
  "devdoc": {
    "kind": "dev",
    "methods": {
      "owner()": {
        "details": "Returns the address of the current owner."
      },
      "renounceOwnership()": {
        "details": "Leaves the contract without owner. It will not be possible to call `onlyOwner` functions anymore. Can only be called by the current owner. NOTE: Renouncing ownership will leave the contract without an owner, thereby removing any functionality that is only available to the owner."
      },
      "transferOwnership(address)": {
        "details": "Transfers ownership of the contract to a new account (`newOwner`). Can only be called by the current owner."
      }
    },
    "version": 1
  },
  "userdoc": {
    "kind": "user",
    "methods": {},
    "version": 1
  },
  "storageLayout": {
    "storage": [
      {
        "astId": 7,
        "contract": "contracts/MemesAuction.sol:MemesAuction",
        "label": "_owner",
        "offset": 0,
        "slot": "0",
        "type": "t_address"
      },
      {
        "astId": 2951,
        "contract": "contracts/MemesAuction.sol:MemesAuction",
        "label": "lastEpochStartBlockNumber",
        "offset": 0,
        "slot": "1",
        "type": "t_uint256"
      },
      {
        "astId": 2953,
        "contract": "contracts/MemesAuction.sol:MemesAuction",
        "label": "auctionStarted",
        "offset": 0,
        "slot": "2",
        "type": "t_bool"
      }
    ],
    "types": {
      "t_address": {
        "encoding": "inplace",
        "label": "address",
        "numberOfBytes": "20"
      },
      "t_bool": {
        "encoding": "inplace",
        "label": "bool",
        "numberOfBytes": "1"
      },
      "t_uint256": {
        "encoding": "inplace",
        "label": "uint256",
        "numberOfBytes": "32"
      }
    }
  }
}