{
  "address": "0xcda468482bEF67fCaF40269D0b9759355a47F2B4",
  "abi": [
    {
      "inputs": [
        {
          "internalType": "address",
          "name": "_mintableNFT",
          "type": "address"
        },
        {
          "internalType": "address",
          "name": "_currencyToken",
          "type": "address"
        }
      ],
      "stateMutability": "nonpayable",
      "type": "constructor"
    },
    {
      "anonymous": false,
      "inputs": [],
      "name": "AuctionPaused",
      "type": "event"
    },
    {
      "anonymous": false,
      "inputs": [],
      "name": "AuctionStarted",
      "type": "event"
    },
    {
      "anonymous": false,
      "inputs": [
        {
          "indexed": false,
          "internalType": "address",
          "name": "buyer",
          "type": "address"
        },
        {
          "indexed": false,
          "internalType": "uint256",
          "name": "tokenId",
          "type": "uint256"
        },
        {
          "indexed": false,
          "internalType": "uint256",
          "name": "price",
          "type": "uint256"
        }
      ],
      "name": "Buyout",
      "type": "event"
    },
    {
      "anonymous": false,
      "inputs": [
        {
          "indexed": true,
          "internalType": "address",
          "name": "previousOwner",
          "type": "address"
        },
        {
          "indexed": true,
          "internalType": "address",
          "name": "newOwner",
          "type": "address"
        }
      ],
      "name": "OwnershipTransferred",
      "type": "event"
    },
    {
      "anonymous": false,
      "inputs": [
        {
          "indexed": false,
          "internalType": "uint32",
          "name": "pct",
          "type": "uint32"
        }
      ],
      "name": "SetBurnPercent",
      "type": "event"
    },
    {
      "anonymous": false,
      "inputs": [
        {
          "indexed": false,
          "internalType": "address",
          "name": "recipient",
          "type": "address"
        }
      ],
      "name": "SetFundsRecipient",
      "type": "event"
    },
    {
      "inputs": [],
      "name": "auctionStarted",
      "outputs": [
        {
          "internalType": "bool",
          "name": "",
          "type": "bool"
        }
      ],
      "stateMutability": "view",
      "type": "function"
    },
    {
      "inputs": [],
      "name": "burnPct",
      "outputs": [
        {
          "internalType": "uint32",
          "name": "",
          "type": "uint32"
        }
      ],
      "stateMutability": "view",
      "type": "function"
    },
    {
      "inputs": [
        {
          "internalType": "uint256",
          "name": "amount",
          "type": "uint256"
        },
        {
          "internalType": "address",
          "name": "recipient",
          "type": "address"
        }
      ],
      "name": "buyout",
      "outputs": [],
      "stateMutability": "nonpayable",
      "type": "function"
    },
    {
      "inputs": [],
      "name": "currencyToken",
      "outputs": [
        {
          "internalType": "address",
          "name": "",
          "type": "address"
        }
      ],
      "stateMutability": "view",
      "type": "function"
    },
    {
      "inputs": [],
      "name": "fundsRecipient",
      "outputs": [
        {
          "internalType": "address",
          "name": "",
          "type": "address"
        }
      ],
      "stateMutability": "view",
      "type": "function"
    },
    {
      "inputs": [
        {
          "internalType": "uint256",
          "name": "blockNumber",
          "type": "uint256"
        }
      ],
      "name": "getMintPrice",
      "outputs": [
        {
          "internalType": "uint256",
          "name": "",
          "type": "uint256"
        }
      ],
      "stateMutability": "view",
      "type": "function"
    },
    {
      "inputs": [],
      "name": "lastEpochStartBlockNumber",
      "outputs": [
        {
          "internalType": "uint256",
          "name": "",
          "type": "uint256"
        }
      ],
      "stateMutability": "view",
      "type": "function"
    },
    {
      "inputs": [],
      "name": "mintableNFT",
      "outputs": [
        {
          "internalType": "address",
          "name": "",
          "type": "address"
        }
      ],
      "stateMutability": "view",
      "type": "function"
    },
    {
      "inputs": [],
      "name": "owner",
      "outputs": [
        {
          "internalType": "address",
          "name": "",
          "type": "address"
        }
      ],
      "stateMutability": "view",
      "type": "function"
    },
    {
      "inputs": [],
      "name": "pauseAuction",
      "outputs": [],
      "stateMutability": "nonpayable",
      "type": "function"
    },
    {
      "inputs": [
        {
          "internalType": "address",
          "name": "from",
          "type": "address"
        },
        {
          "internalType": "uint256",
          "name": "amount",
          "type": "uint256"
        },
        {
          "internalType": "address",
          "name": "token",
          "type": "address"
        },
        {
          "internalType": "bytes",
          "name": "data",
          "type": "bytes"
        }
      ],
      "name": "receiveApproval",
      "outputs": [
        {
          "internalType": "bool",
          "name": "success",
          "type": "bool"
        }
      ],
      "stateMutability": "nonpayable",
      "type": "function"
    },
    {
      "inputs": [],
      "name": "renounceOwnership",
      "outputs": [],
      "stateMutability": "nonpayable",
      "type": "function"
    },
    {
      "inputs": [
        {
          "internalType": "uint32",
          "name": "_pct",
          "type": "uint32"
        }
      ],
      "name": "setBurnPct",
      "outputs": [],
      "stateMutability": "nonpayable",
      "type": "function"
    },
    {
      "inputs": [
        {
          "internalType": "address",
          "name": "_recipient",
          "type": "address"
        }
      ],
      "name": "setFundsRecipient",
      "outputs": [],
      "stateMutability": "nonpayable",
      "type": "function"
    },
    {
      "inputs": [],
      "name": "startAuction",
      "outputs": [],
      "stateMutability": "nonpayable",
      "type": "function"
    },
    {
      "inputs": [
        {
          "internalType": "address",
          "name": "newOwner",
          "type": "address"
        }
      ],
      "name": "transferOwnership",
      "outputs": [],
      "stateMutability": "nonpayable",
      "type": "function"
    }
  ],
  "transactionHash": "0xd54d24d9af487a31e7f948d66ae44fb06fe94149cf4460dbb893c559d8a83796",
  "args": [
    "0xB6eD7644C69416d67B522e20bC294A9a9B405B31",
    "0xb6ed7644c69416d67b522e20bc294a9a9b405b31"
  ],
  "solcInputHash": "26cf1daeb96b502c01486846d5c00edf",
  "bytecode": "0x60c06040526001805463ffffffff60a01b191661027160a31b17905534801561002757600080fd5b506040516111a93803806111a9833981016040819052610046916100d2565b61004f33610066565b6001600160a01b039182166080521660a052610105565b600080546001600160a01b038381166001600160a01b0319831681178455604051919092169283917f8be0079c531659141344cd1fd0a4f28419497f9722a3daafe3b4186f6b6457e09190a35050565b80516001600160a01b03811681146100cd57600080fd5b919050565b600080604083850312156100e557600080fd5b6100ee836100b6565b91506100fc602084016100b6565b90509250929050565b60805160a051611047610162600039600081816101960152818161042c0152818161049b015281816106f001528181610b030152610bb10152600081816102360152818161078901528181610847015261092701526110476000f3fe608060405234801561001057600080fd5b50600436106101005760003560e01c80638da5cb5b11610097578063a22cf5be11610066578063a22cf5be14610231578063b9ae736414610258578063ee2679bc14610260578063f2fde38b1461026d57600080fd5b80638da5cb5b146101c85780638f4ffcb1146101d957806393c39bf9146101fc5780639618b31c1461020557600080fd5b8063559e775b116100d3578063559e775b146101705780636b2fa374146101915780636b64c769146101b8578063715018a6146101c057600080fd5b806310a7eb5d1461010557806312a8ec9e1461011a5780633700d5451461012d5780633b6fd2cf14610140575b600080fd5b610118610113366004610cee565b610280565b005b610118610128366004610d09565b6102dd565b61011861013b366004610d2f565b610388565b600154610153906001600160a01b031681565b6040516001600160a01b0390911681526020015b60405180910390f35b61018361017e366004610d5b565b610397565b604051908152602001610167565b6101537f000000000000000000000000000000000000000000000000000000000000000081565b6101186103fb565b61011861040d565b6000546001600160a01b0316610153565b6101ec6101e7366004610d8a565b61041f565b6040519015158152602001610167565b61018360025481565b60015461021c90600160a01b900463ffffffff1681565b60405163ffffffff9091168152602001610167565b6101537f000000000000000000000000000000000000000000000000000000000000000081565b610118610530565b6003546101ec9060ff1681565b61011861027b366004610cee565b610540565b6102886105b9565b600180546001600160a01b0319166001600160a01b0383169081179091556040519081527f87f6be1fd3abdc257623198837c173b4f38197a4bb2a671a7d79a007ee4b0111906020015b60405180910390a150565b6102e56105b9565b6127108163ffffffff1611156103345760405162461bcd60e51b815260206004820152600f60248201526e125b9d985b1a59081c195c98d95b9d608a1b60448201526064015b60405180910390fd5b6001805463ffffffff60a01b1916600160a01b63ffffffff8416908102919091179091556040519081527f5291c3ecd6662169f313c901bab0bd7b80ca8022c470e4e8fbe883605760fbb5906020016102d2565b610393338383610613565b5050565b60035460009060ff166103b25750660775f05a074000919050565b6000600254836103c29190610e7c565b90506103f4660775f05a0740006103ef6103dd600285610f77565b6103e8906064610f86565b60c86108eb565b6108eb565b9392505050565b6104036105b9565b61040b610925565b565b6104156105b9565b61040b6000610a3d565b6000336001600160a01b037f000000000000000000000000000000000000000000000000000000000000000016146104995760405162461bcd60e51b815260206004820152601e60248201527f496e76616c69642072656365697665417070726f76616c206f726967696e0000604482015260640161032b565b7f00000000000000000000000000000000000000000000000000000000000000006001600160a01b0316836001600160a01b03161461051a5760405162461bcd60e51b815260206004820152601b60248201527f496e76616c696420746f6b656e20747970652072656365697665640000000000604482015260640161032b565b610525858587610613565b506001949350505050565b6105386105b9565b61040b610a8d565b6105486105b9565b6001600160a01b0381166105ad5760405162461bcd60e51b815260206004820152602660248201527f4f776e61626c653a206e6577206f776e657220697320746865207a65726f206160448201526564647265737360d01b606482015260840161032b565b6105b681610a3d565b50565b6000546001600160a01b0316331461040b5760405162461bcd60e51b815260206004820181905260248201527f4f776e61626c653a2063616c6c6572206973206e6f7420746865206f776e6572604482015260640161032b565b43600061061f82610397565b9050808410156106685760405162461bcd60e51b815260206004820152601460248201527324b739bab33334b1b4b2b73a1030b6b7bab73a1760611b604482015260640161032b565b60035460ff166106ba5760405162461bcd60e51b815260206004820152601760248201527f41756374696f6e206973206e6f7420737461727465642e000000000000000000604482015260640161032b565b6003805460ff191690556040516323b872dd60e01b81526001600160a01b038681166004830152306024830152604482018390527f000000000000000000000000000000000000000000000000000000000000000016906323b872dd906064016020604051808303816000875af1158015610739573d6000803e3d6000fd5b505050506040513d601f19601f8201168201806040525081019061075d9190610f9e565b5061076781610ac2565b6040516335313c2160e11b81526001600160a01b0384811660048301526000917f000000000000000000000000000000000000000000000000000000000000000090911690636a627842906024016020604051808303816000875af11580156107d4573d6000803e3d6000fd5b505050506040513d601f19601f820116820180604052508101906107f89190610fc0565b604080516001600160a01b0387168152602081018390529081018490529091507fd1cfbb468dd776e3efe927f92120359cbc23ee21d5124a3826a6d55f5c5247dd9060600160405180910390a17f00000000000000000000000000000000000000000000000000000000000000006001600160a01b0316630e7e0a936040518163ffffffff1660e01b81526004016020604051808303816000875af11580156108a5573d6000803e3d6000fd5b505050506040513d601f19601f820116820180604052508101906108c99190610f9e565b156108db576108d6610925565b6108e3565b6108e3610a8d565b505050505050565b6000821561091957816108ff600185610e7c565b6109099190610fef565b610914906001610f86565b61091c565b60005b90505b92915050565b7f00000000000000000000000000000000000000000000000000000000000000006001600160a01b0316630e7e0a936040518163ffffffff1660e01b81526004016020604051808303816000875af1158015610985573d6000803e3d6000fd5b505050506040513d601f19601f820116820180604052508101906109a99190610f9e565b610a015760405162461bcd60e51b815260206004820152602360248201527f5468657265206973206e6f206d696e7461626c65206e667420617661696c616260448201526236329760e91b606482015260840161032b565b6003805460ff19166001179055436002556040517fc8f99b9ac2a284b93c3652b9f064a6706724088cdafa9e0a8437c026191b2f0390600090a1565b600080546001600160a01b038381166001600160a01b0319831681178455604051919092169283917f8be0079c531659141344cd1fd0a4f28419497f9722a3daafe3b4186f6b6457e09190a35050565b6003805460ff191690556040517f749d6d79623c8cbd2345906702c70ae75d4254a6c409047c16d52fa5a37ef69890600090a1565b600154600090610ae3908390600160a01b900463ffffffff16612710610c24565b60405163a9059cbb60e01b815260006004820152602481018290529091507f00000000000000000000000000000000000000000000000000000000000000006001600160a01b03169063a9059cbb906044016020604051808303816000875af1158015610b54573d6000803e3d6000fd5b505050506040513d601f19601f82011682018060405250810190610b789190610f9e565b506000610b858284610e7c565b60015460405163a9059cbb60e01b81526001600160a01b039182166004820152602481018390529192507f0000000000000000000000000000000000000000000000000000000000000000169063a9059cbb906044016020604051808303816000875af1158015610bfa573d6000803e3d6000fd5b505050506040513d601f19601f82011682018060405250810190610c1e9190610f9e565b50505050565b6000808060001985870985870292508281108382030391505080600003610c5e57838281610c5457610c54610fd9565b04925050506103f4565b808411610c6a57600080fd5b600084868809600260036001881981018916988990049182028318808302840302808302840302808302840302808302840302808302840302918202909203026000889003889004909101858311909403939093029303949094049190911702949350505050565b80356001600160a01b0381168114610ce957600080fd5b919050565b600060208284031215610d0057600080fd5b61091c82610cd2565b600060208284031215610d1b57600080fd5b813563ffffffff811681146103f457600080fd5b60008060408385031215610d4257600080fd5b82359150610d5260208401610cd2565b90509250929050565b600060208284031215610d6d57600080fd5b5035919050565b634e487b7160e01b600052604160045260246000fd5b60008060008060808587031215610da057600080fd5b610da985610cd2565b935060208501359250610dbe60408601610cd2565b9150606085013567ffffffffffffffff80821115610ddb57600080fd5b818701915087601f830112610def57600080fd5b813581811115610e0157610e01610d74565b604051601f8201601f19908116603f01168101908382118183101715610e2957610e29610d74565b816040528281528a6020848701011115610e4257600080fd5b82602086016020830137600060208483010152809550505050505092959194509250565b634e487b7160e01b600052601160045260246000fd5b600082821015610e8e57610e8e610e66565b500390565b600181815b80851115610ece578160001904821115610eb457610eb4610e66565b80851615610ec157918102915b93841c9390800290610e98565b509250929050565b600082610ee55750600161091f565b81610ef25750600061091f565b8160018114610f085760028114610f1257610f2e565b600191505061091f565b60ff841115610f2357610f23610e66565b50506001821b61091f565b5060208310610133831016604e8410600b8410161715610f51575081810a61091f565b610f5b8383610e93565b8060001904821115610f6f57610f6f610e66565b029392505050565b600061091c60ff841683610ed6565b60008219821115610f9957610f99610e66565b500190565b600060208284031215610fb057600080fd5b815180151581146103f457600080fd5b600060208284031215610fd257600080fd5b5051919050565b634e487b7160e01b600052601260045260246000fd5b60008261100c57634e487b7160e01b600052601260045260246000fd5b50049056fea26469706673582212208c6e8139f947a30d8dd64d5fef1d571054277c1037a3e4a58f089b67523e2b1964736f6c634300080d0033",
  "devdoc": {
    "kind": "dev",
    "methods": {
      "owner()": {
        "details": "Returns the address of the current owner."
      },
      "renounceOwnership()": {
        "details": "Leaves the contract without owner. It will not be possible to call `onlyOwner` functions anymore. Can only be called by the current owner. NOTE: Renouncing ownership will leave the contract without an owner, thereby removing any functionality that is only available to the owner."
      },
      "transferOwnership(address)": {
        "details": "Transfers ownership of the contract to a new account (`newOwner`). Can only be called by the current owner."
      }
    },
    "version": 1
  },
  "userdoc": {
    "kind": "user",
    "methods": {},
    "version": 1
  },
  "storageLayout": {
    "storage": [
      {
        "astId": 7,
        "contract": "contracts/MemesAuction.sol:MemesAuction",
        "label": "_owner",
        "offset": 0,
        "slot": "0",
        "type": "t_address"
      },
      {
        "astId": 2951,
        "contract": "contracts/MemesAuction.sol:MemesAuction",
        "label": "fundsRecipient",
        "offset": 0,
        "slot": "1",
        "type": "t_address"
      },
      {
        "astId": 2954,
        "contract": "contracts/MemesAuction.sol:MemesAuction",
        "label": "burnPct",
        "offset": 20,
        "slot": "1",
        "type": "t_uint32"
      },
      {
        "astId": 2956,
        "contract": "contracts/MemesAuction.sol:MemesAuction",
        "label": "lastEpochStartBlockNumber",
        "offset": 0,
        "slot": "2",
        "type": "t_uint256"
      },
      {
        "astId": 2958,
        "contract": "contracts/MemesAuction.sol:MemesAuction",
        "label": "auctionStarted",
        "offset": 0,
        "slot": "3",
        "type": "t_bool"
      }
    ],
    "types": {
      "t_address": {
        "encoding": "inplace",
        "label": "address",
        "numberOfBytes": "20"
      },
      "t_bool": {
        "encoding": "inplace",
        "label": "bool",
        "numberOfBytes": "1"
      },
      "t_uint256": {
        "encoding": "inplace",
        "label": "uint256",
        "numberOfBytes": "32"
      },
      "t_uint32": {
        "encoding": "inplace",
        "label": "uint32",
        "numberOfBytes": "4"
      }
    }
  }
}