{
  "address": "0xCD441b77F995aEAdb0a4D3924Bd72e12c7330a4C",
  "abi": [
    {
      "inputs": [
        {
          "internalType": "address",
          "name": "_mintableNFT",
          "type": "address"
        },
        {
          "internalType": "address",
          "name": "_currencyToken",
          "type": "address"
        }
      ],
      "stateMutability": "nonpayable",
      "type": "constructor"
    },
    {
      "anonymous": false,
      "inputs": [],
      "name": "AuctionPaused",
      "type": "event"
    },
    {
      "anonymous": false,
      "inputs": [],
      "name": "AuctionStarted",
      "type": "event"
    },
    {
      "anonymous": false,
      "inputs": [
        {
          "indexed": false,
          "internalType": "address",
          "name": "buyer",
          "type": "address"
        },
        {
          "indexed": false,
          "internalType": "uint256",
          "name": "tokenId",
          "type": "uint256"
        },
        {
          "indexed": false,
          "internalType": "uint256",
          "name": "price",
          "type": "uint256"
        }
      ],
      "name": "Buyout",
      "type": "event"
    },
    {
      "anonymous": false,
      "inputs": [
        {
          "indexed": true,
          "internalType": "address",
          "name": "previousOwner",
          "type": "address"
        },
        {
          "indexed": true,
          "internalType": "address",
          "name": "newOwner",
          "type": "address"
        }
      ],
      "name": "OwnershipTransferred",
      "type": "event"
    },
    {
      "inputs": [],
      "name": "auctionStarted",
      "outputs": [
        {
          "internalType": "bool",
          "name": "",
          "type": "bool"
        }
      ],
      "stateMutability": "view",
      "type": "function"
    },
    {
      "inputs": [
        {
          "internalType": "uint256",
          "name": "amount",
          "type": "uint256"
        },
        {
          "internalType": "address",
          "name": "recipient",
          "type": "address"
        }
      ],
      "name": "buyout",
      "outputs": [],
      "stateMutability": "nonpayable",
      "type": "function"
    },
    {
      "inputs": [],
      "name": "currencyToken",
      "outputs": [
        {
          "internalType": "address",
          "name": "",
          "type": "address"
        }
      ],
      "stateMutability": "view",
      "type": "function"
    },
    {
      "inputs": [
        {
          "internalType": "uint256",
          "name": "blockNumber",
          "type": "uint256"
        }
      ],
      "name": "getMintPrice",
      "outputs": [
        {
          "internalType": "uint256",
          "name": "",
          "type": "uint256"
        }
      ],
      "stateMutability": "view",
      "type": "function"
    },
    {
      "inputs": [],
      "name": "lastEpochStartBlockNumber",
      "outputs": [
        {
          "internalType": "uint256",
          "name": "",
          "type": "uint256"
        }
      ],
      "stateMutability": "view",
      "type": "function"
    },
    {
      "inputs": [],
      "name": "mintableNFT",
      "outputs": [
        {
          "internalType": "address",
          "name": "",
          "type": "address"
        }
      ],
      "stateMutability": "view",
      "type": "function"
    },
    {
      "inputs": [],
      "name": "owner",
      "outputs": [
        {
          "internalType": "address",
          "name": "",
          "type": "address"
        }
      ],
      "stateMutability": "view",
      "type": "function"
    },
    {
      "inputs": [],
      "name": "pauseAuction",
      "outputs": [],
      "stateMutability": "nonpayable",
      "type": "function"
    },
    {
      "inputs": [],
      "name": "renounceOwnership",
      "outputs": [],
      "stateMutability": "nonpayable",
      "type": "function"
    },
    {
      "inputs": [],
      "name": "startAuction",
      "outputs": [],
      "stateMutability": "nonpayable",
      "type": "function"
    },
    {
      "inputs": [
        {
          "internalType": "address",
          "name": "newOwner",
          "type": "address"
        }
      ],
      "name": "transferOwnership",
      "outputs": [],
      "stateMutability": "nonpayable",
      "type": "function"
    }
  ],
  "transactionHash": "0x511f73f09661bb1f34d839784dc2fb77cb20548293eec75aed8d1f0f5a5760fb",
  "args": [
    "0x7280F0347C14AEc967F13F9466942B812060cb2c",
    "0xab89a7742cb10e7bce98540fd05c7d731839cf9f"
  ],
  "solcInputHash": "19853fc1dd02bb60032fd896f65fbdab",
  "bytecode": "0x60c060405234801561001057600080fd5b50604051610af7380380610af783398101604081905261002f916100bb565b6100383361004f565b6001600160a01b039182166080521660a0526100ee565b600080546001600160a01b038381166001600160a01b0319831681178455604051919092169283917f8be0079c531659141344cd1fd0a4f28419497f9722a3daafe3b4186f6b6457e09190a35050565b80516001600160a01b03811681146100b657600080fd5b919050565b600080604083850312156100ce57600080fd5b6100d78361009f565b91506100e56020840161009f565b90509250929050565b60805160a0516109c961012e6000396000818160ee015261024f015260008181610157015281816102e70152818161039c015261055101526109c96000f3fe608060405234801561001057600080fd5b50600436106100a95760003560e01c80638da5cb5b116100715780638da5cb5b1461013857806393c39bf914610149578063a22cf5be14610152578063b9ae736414610179578063ee2679bc14610181578063f2fde38b1461019e57600080fd5b80633700d545146100ae578063559e775b146100c35780636b2fa374146100e95780636b64c76914610128578063715018a614610130575b600080fd5b6100c16100bc36600461079e565b6101b1565b005b6100d66100d13660046107ca565b61043e565b6040519081526020015b60405180910390f35b6101107f000000000000000000000000000000000000000000000000000000000000000081565b6040516001600160a01b0390911681526020016100e0565b6100c16104a2565b6100c16104b4565b6000546001600160a01b0316610110565b6100d660015481565b6101107f000000000000000000000000000000000000000000000000000000000000000081565b6100c16104c6565b60025461018e9060ff1681565b60405190151581526020016100e0565b6100c16101ac3660046107e3565b6104d6565b60025460ff166102085760405162461bcd60e51b815260206004820152601760248201527f41756374696f6e206973206e6f7420737461727465642e00000000000000000060448201526064015b60405180910390fd5b6002805460ff19169055600061021d4361043e565b90508083101561022c57600080fd5b6040516323b872dd60e01b815233600482015260006024820152604481018490527f00000000000000000000000000000000000000000000000000000000000000006001600160a01b0316906323b872dd906064016020604051808303816000875af11580156102a0573d6000803e3d6000fd5b505050506040513d601f19601f820116820180604052508101906102c491906107fe565b506040516335313c2160e11b81526001600160a01b0383811660048301526000917f000000000000000000000000000000000000000000000000000000000000000090911690636a627842906024016020604051808303816000875af1158015610332573d6000803e3d6000fd5b505050506040513d601f19601f820116820180604052508101906103569190610820565b60408051338152602081018390529081018690529091507fd1cfbb468dd776e3efe927f92120359cbc23ee21d5124a3826a6d55f5c5247dd9060600160405180910390a17f00000000000000000000000000000000000000000000000000000000000000006001600160a01b0316630e7e0a936040518163ffffffff1660e01b81526004016020604051808303816000875af11580156103fa573d6000803e3d6000fd5b505050506040513d601f19601f8201168201806040525081019061041e91906107fe565b156104305761042b61054f565b610438565b610438610669565b50505050565b60025460009060ff166104595750660775f05a074000919050565b600060015483610469919061084f565b905061049b660775f05a07400061049661048460028561094a565b61048f906064610959565b60c861069e565b61069e565b9392505050565b6104aa6106d8565b6104b261054f565b565b6104bc6106d8565b6104b26000610732565b6104ce6106d8565b6104b2610669565b6104de6106d8565b6001600160a01b0381166105435760405162461bcd60e51b815260206004820152602660248201527f4f776e61626c653a206e6577206f776e657220697320746865207a65726f206160448201526564647265737360d01b60648201526084016101ff565b61054c81610732565b50565b7f00000000000000000000000000000000000000000000000000000000000000006001600160a01b0316630e7e0a936040518163ffffffff1660e01b81526004016020604051808303816000875af11580156105af573d6000803e3d6000fd5b505050506040513d601f19601f820116820180604052508101906105d391906107fe565b61062b5760405162461bcd60e51b815260206004820152602360248201527f5468657265206973206e6f206d696e7461626c65206e667420617661696c616260448201526236329760e91b60648201526084016101ff565b6002805460ff191660019081179091554390556040517fc8f99b9ac2a284b93c3652b9f064a6706724088cdafa9e0a8437c026191b2f0390600090a1565b6002805460ff191690556040517f749d6d79623c8cbd2345906702c70ae75d4254a6c409047c16d52fa5a37ef69890600090a1565b600082156106cc57816106b260018561084f565b6106bc9190610971565b6106c7906001610959565b6106cf565b60005b90505b92915050565b6000546001600160a01b031633146104b25760405162461bcd60e51b815260206004820181905260248201527f4f776e61626c653a2063616c6c6572206973206e6f7420746865206f776e657260448201526064016101ff565b600080546001600160a01b038381166001600160a01b0319831681178455604051919092169283917f8be0079c531659141344cd1fd0a4f28419497f9722a3daafe3b4186f6b6457e09190a35050565b80356001600160a01b038116811461079957600080fd5b919050565b600080604083850312156107b157600080fd5b823591506107c160208401610782565b90509250929050565b6000602082840312156107dc57600080fd5b5035919050565b6000602082840312156107f557600080fd5b6106cf82610782565b60006020828403121561081057600080fd5b8151801515811461049b57600080fd5b60006020828403121561083257600080fd5b5051919050565b634e487b7160e01b600052601160045260246000fd5b60008282101561086157610861610839565b500390565b600181815b808511156108a157816000190482111561088757610887610839565b8085161561089457918102915b93841c939080029061086b565b509250929050565b6000826108b8575060016106d2565b816108c5575060006106d2565b81600181146108db57600281146108e557610901565b60019150506106d2565b60ff8411156108f6576108f6610839565b50506001821b6106d2565b5060208310610133831016604e8410600b8410161715610924575081810a6106d2565b61092e8383610866565b806000190482111561094257610942610839565b029392505050565b60006106cf60ff8416836108a9565b6000821982111561096c5761096c610839565b500190565b60008261098e57634e487b7160e01b600052601260045260246000fd5b50049056fea2646970667358221220abe938b6dd9de13c810c83ae7607cdf8075fbec6f33dd38a753875e32f5356a264736f6c634300080d0033",
  "devdoc": {
    "kind": "dev",
    "methods": {
      "owner()": {
        "details": "Returns the address of the current owner."
      },
      "renounceOwnership()": {
        "details": "Leaves the contract without owner. It will not be possible to call `onlyOwner` functions anymore. Can only be called by the current owner. NOTE: Renouncing ownership will leave the contract without an owner, thereby removing any functionality that is only available to the owner."
      },
      "transferOwnership(address)": {
        "details": "Transfers ownership of the contract to a new account (`newOwner`). Can only be called by the current owner."
      }
    },
    "version": 1
  },
  "userdoc": {
    "kind": "user",
    "methods": {},
    "version": 1
  },
  "storageLayout": {
    "storage": [
      {
        "astId": 7,
        "contract": "contracts/MemesAuction.sol:MemesAuction",
        "label": "_owner",
        "offset": 0,
        "slot": "0",
        "type": "t_address"
      },
      {
        "astId": 2951,
        "contract": "contracts/MemesAuction.sol:MemesAuction",
        "label": "lastEpochStartBlockNumber",
        "offset": 0,
        "slot": "1",
        "type": "t_uint256"
      },
      {
        "astId": 2953,
        "contract": "contracts/MemesAuction.sol:MemesAuction",
        "label": "auctionStarted",
        "offset": 0,
        "slot": "2",
        "type": "t_bool"
      }
    ],
    "types": {
      "t_address": {
        "encoding": "inplace",
        "label": "address",
        "numberOfBytes": "20"
      },
      "t_bool": {
        "encoding": "inplace",
        "label": "bool",
        "numberOfBytes": "1"
      },
      "t_uint256": {
        "encoding": "inplace",
        "label": "uint256",
        "numberOfBytes": "32"
      }
    }
  }
}