{
  "abi": [
    {
      "inputs": [],
      "stateMutability": "nonpayable",
      "type": "constructor"
    },
    {
      "anonymous": false,
      "inputs": [
        {
          "indexed": true,
          "internalType": "address",
          "name": "tokenOwner",
          "type": "address"
        },
        {
          "indexed": true,
          "internalType": "address",
          "name": "spender",
          "type": "address"
        },
        {
          "indexed": false,
          "internalType": "uint256",
          "name": "tokens",
          "type": "uint256"
        }
      ],
      "name": "Approval",
      "type": "event"
    },
    {
      "anonymous": false,
      "inputs": [
        {
          "indexed": false,
          "internalType": "address",
          "name": "from",
          "type": "address"
        },
        {
          "indexed": false,
          "internalType": "uint256",
          "name": "reward_amount",
          "type": "uint256"
        },
        {
          "indexed": false,
          "internalType": "uint256",
          "name": "epochCount",
          "type": "uint256"
        },
        {
          "indexed": false,
          "internalType": "bytes32",
          "name": "newChallengeNumber",
          "type": "bytes32"
        }
      ],
      "name": "Mint",
      "type": "event"
    },
    {
      "anonymous": false,
      "inputs": [
        {
          "indexed": true,
          "internalType": "address",
          "name": "from",
          "type": "address"
        },
        {
          "indexed": true,
          "internalType": "address",
          "name": "to",
          "type": "address"
        },
        {
          "indexed": false,
          "internalType": "uint256",
          "name": "tokens",
          "type": "uint256"
        }
      ],
      "name": "Transfer",
      "type": "event"
    },
    {
      "inputs": [],
      "name": "DOMAIN_SEPARATOR",
      "outputs": [
        {
          "internalType": "bytes32",
          "name": "",
          "type": "bytes32"
        }
      ],
      "stateMutability": "view",
      "type": "function"
    },
    {
      "inputs": [],
      "name": "PERMIT_TYPEHASH",
      "outputs": [
        {
          "internalType": "bytes32",
          "name": "",
          "type": "bytes32"
        }
      ],
      "stateMutability": "view",
      "type": "function"
    },
    {
      "inputs": [],
      "name": "_BLOCKS_PER_READJUSTMENT",
      "outputs": [
        {
          "internalType": "uint256",
          "name": "",
          "type": "uint256"
        }
      ],
      "stateMutability": "view",
      "type": "function"
    },
    {
      "inputs": [],
      "name": "_MAXIMUM_TARGET",
      "outputs": [
        {
          "internalType": "uint256",
          "name": "",
          "type": "uint256"
        }
      ],
      "stateMutability": "view",
      "type": "function"
    },
    {
      "inputs": [],
      "name": "_MINIMUM_TARGET",
      "outputs": [
        {
          "internalType": "uint256",
          "name": "",
          "type": "uint256"
        }
      ],
      "stateMutability": "view",
      "type": "function"
    },
    {
      "inputs": [
        {
          "internalType": "address",
          "name": "tokenOwner",
          "type": "address"
        },
        {
          "internalType": "address",
          "name": "spender",
          "type": "address"
        }
      ],
      "name": "allowance",
      "outputs": [
        {
          "internalType": "uint256",
          "name": "remaining",
          "type": "uint256"
        }
      ],
      "stateMutability": "view",
      "type": "function"
    },
    {
      "inputs": [],
      "name": "amountDeposited",
      "outputs": [
        {
          "internalType": "uint256",
          "name": "",
          "type": "uint256"
        }
      ],
      "stateMutability": "view",
      "type": "function"
    },
    {
      "inputs": [
        {
          "internalType": "address",
          "name": "spender",
          "type": "address"
        },
        {
          "internalType": "uint256",
          "name": "tokens",
          "type": "uint256"
        }
      ],
      "name": "approve",
      "outputs": [
        {
          "internalType": "bool",
          "name": "success",
          "type": "bool"
        }
      ],
      "stateMutability": "nonpayable",
      "type": "function"
    },
    {
      "inputs": [
        {
          "internalType": "address",
          "name": "spender",
          "type": "address"
        },
        {
          "internalType": "uint256",
          "name": "tokens",
          "type": "uint256"
        },
        {
          "internalType": "bytes",
          "name": "data",
          "type": "bytes"
        }
      ],
      "name": "approveAndCall",
      "outputs": [
        {
          "internalType": "bool",
          "name": "success",
          "type": "bool"
        }
      ],
      "stateMutability": "nonpayable",
      "type": "function"
    },
    {
      "inputs": [
        {
          "internalType": "address",
          "name": "tokenOwner",
          "type": "address"
        }
      ],
      "name": "balanceOf",
      "outputs": [
        {
          "internalType": "uint256",
          "name": "balance",
          "type": "uint256"
        }
      ],
      "stateMutability": "view",
      "type": "function"
    },
    {
      "inputs": [],
      "name": "challengeNumber",
      "outputs": [
        {
          "internalType": "bytes32",
          "name": "",
          "type": "bytes32"
        }
      ],
      "stateMutability": "view",
      "type": "function"
    },
    {
      "inputs": [
        {
          "internalType": "uint256",
          "name": "nonce",
          "type": "uint256"
        },
        {
          "internalType": "address",
          "name": "minter",
          "type": "address"
        },
        {
          "internalType": "bytes32",
          "name": "challenge_number",
          "type": "bytes32"
        },
        {
          "internalType": "uint256",
          "name": "testTarget",
          "type": "uint256"
        }
      ],
      "name": "checkMintSolution",
      "outputs": [
        {
          "internalType": "bool",
          "name": "success",
          "type": "bool"
        }
      ],
      "stateMutability": "view",
      "type": "function"
    },
    {
      "inputs": [],
      "name": "currentMiningReward",
      "outputs": [
        {
          "internalType": "uint256",
          "name": "",
          "type": "uint256"
        }
      ],
      "stateMutability": "view",
      "type": "function"
    },
    {
      "inputs": [],
      "name": "decimals",
      "outputs": [
        {
          "internalType": "uint8",
          "name": "",
          "type": "uint8"
        }
      ],
      "stateMutability": "view",
      "type": "function"
    },
    {
      "inputs": [],
      "name": "epochCount",
      "outputs": [
        {
          "internalType": "uint256",
          "name": "",
          "type": "uint256"
        }
      ],
      "stateMutability": "view",
      "type": "function"
    },
    {
      "inputs": [],
      "name": "getChallengeNumber",
      "outputs": [
        {
          "internalType": "bytes32",
          "name": "",
          "type": "bytes32"
        }
      ],
      "stateMutability": "view",
      "type": "function"
    },
    {
      "inputs": [],
      "name": "getMiningDifficulty",
      "outputs": [
        {
          "internalType": "uint256",
          "name": "",
          "type": "uint256"
        }
      ],
      "stateMutability": "view",
      "type": "function"
    },
    {
      "inputs": [],
      "name": "getMiningTarget",
      "outputs": [
        {
          "internalType": "uint256",
          "name": "",
          "type": "uint256"
        }
      ],
      "stateMutability": "view",
      "type": "function"
    },
    {
      "inputs": [
        {
          "internalType": "uint256",
          "name": "nonce",
          "type": "uint256"
        },
        {
          "internalType": "address",
          "name": "minter",
          "type": "address"
        },
        {
          "internalType": "bytes32",
          "name": "challenge_number",
          "type": "bytes32"
        }
      ],
      "name": "getMintDigest",
      "outputs": [
        {
          "internalType": "bytes32",
          "name": "digesttest",
          "type": "bytes32"
        }
      ],
      "stateMutability": "view",
      "type": "function"
    },
    {
      "inputs": [],
      "name": "lastRewardAmount",
      "outputs": [
        {
          "internalType": "uint256",
          "name": "",
          "type": "uint256"
        }
      ],
      "stateMutability": "view",
      "type": "function"
    },
    {
      "inputs": [],
      "name": "lastRewardEthBlockNumber",
      "outputs": [
        {
          "internalType": "uint256",
          "name": "",
          "type": "uint256"
        }
      ],
      "stateMutability": "view",
      "type": "function"
    },
    {
      "inputs": [],
      "name": "lastRewardTo",
      "outputs": [
        {
          "internalType": "address",
          "name": "",
          "type": "address"
        }
      ],
      "stateMutability": "view",
      "type": "function"
    },
    {
      "inputs": [],
      "name": "latestDifficultyPeriodStarted",
      "outputs": [
        {
          "internalType": "uint256",
          "name": "",
          "type": "uint256"
        }
      ],
      "stateMutability": "view",
      "type": "function"
    },
    {
      "inputs": [],
      "name": "maxSupplyForEra",
      "outputs": [
        {
          "internalType": "uint256",
          "name": "",
          "type": "uint256"
        }
      ],
      "stateMutability": "view",
      "type": "function"
    },
    {
      "inputs": [],
      "name": "minedSupply",
      "outputs": [
        {
          "internalType": "uint256",
          "name": "",
          "type": "uint256"
        }
      ],
      "stateMutability": "view",
      "type": "function"
    },
    {
      "inputs": [],
      "name": "miningTarget",
      "outputs": [
        {
          "internalType": "uint256",
          "name": "",
          "type": "uint256"
        }
      ],
      "stateMutability": "view",
      "type": "function"
    },
    {
      "inputs": [
        {
          "internalType": "uint256",
          "name": "nonce",
          "type": "uint256"
        },
        {
          "internalType": "bytes32",
          "name": "challenge_digest",
          "type": "bytes32"
        }
      ],
      "name": "mint",
      "outputs": [
        {
          "internalType": "bool",
          "name": "success",
          "type": "bool"
        }
      ],
      "stateMutability": "nonpayable",
      "type": "function"
    },
    {
      "inputs": [
        {
          "internalType": "uint256",
          "name": "nonce",
          "type": "uint256"
        },
        {
          "internalType": "address",
          "name": "minter",
          "type": "address"
        }
      ],
      "name": "mintTo",
      "outputs": [
        {
          "internalType": "bool",
          "name": "success",
          "type": "bool"
        }
      ],
      "stateMutability": "nonpayable",
      "type": "function"
    },
    {
      "inputs": [],
      "name": "name",
      "outputs": [
        {
          "internalType": "string",
          "name": "",
          "type": "string"
        }
      ],
      "stateMutability": "view",
      "type": "function"
    },
    {
      "inputs": [
        {
          "internalType": "address",
          "name": "owner",
          "type": "address"
        }
      ],
      "name": "nonces",
      "outputs": [
        {
          "internalType": "uint256",
          "name": "",
          "type": "uint256"
        }
      ],
      "stateMutability": "view",
      "type": "function"
    },
    {
      "inputs": [
        {
          "internalType": "address",
          "name": "owner",
          "type": "address"
        },
        {
          "internalType": "address",
          "name": "spender",
          "type": "address"
        },
        {
          "internalType": "uint256",
          "name": "value",
          "type": "uint256"
        },
        {
          "internalType": "uint256",
          "name": "deadline",
          "type": "uint256"
        },
        {
          "internalType": "uint8",
          "name": "v",
          "type": "uint8"
        },
        {
          "internalType": "bytes32",
          "name": "r",
          "type": "bytes32"
        },
        {
          "internalType": "bytes32",
          "name": "s",
          "type": "bytes32"
        }
      ],
      "name": "permit",
      "outputs": [],
      "stateMutability": "nonpayable",
      "type": "function"
    },
    {
      "inputs": [],
      "name": "rewardEra",
      "outputs": [
        {
          "internalType": "uint256",
          "name": "",
          "type": "uint256"
        }
      ],
      "stateMutability": "view",
      "type": "function"
    },
    {
      "inputs": [],
      "name": "symbol",
      "outputs": [
        {
          "internalType": "string",
          "name": "",
          "type": "string"
        }
      ],
      "stateMutability": "view",
      "type": "function"
    },
    {
      "inputs": [],
      "name": "tokensMinted",
      "outputs": [
        {
          "internalType": "uint256",
          "name": "",
          "type": "uint256"
        }
      ],
      "stateMutability": "view",
      "type": "function"
    },
    {
      "inputs": [],
      "name": "totalSupply",
      "outputs": [
        {
          "internalType": "uint256",
          "name": "",
          "type": "uint256"
        }
      ],
      "stateMutability": "view",
      "type": "function"
    },
    {
      "inputs": [
        {
          "internalType": "address",
          "name": "to",
          "type": "address"
        },
        {
          "internalType": "uint256",
          "name": "tokens",
          "type": "uint256"
        }
      ],
      "name": "transfer",
      "outputs": [
        {
          "internalType": "bool",
          "name": "success",
          "type": "bool"
        }
      ],
      "stateMutability": "nonpayable",
      "type": "function"
    },
    {
      "inputs": [
        {
          "internalType": "address",
          "name": "from",
          "type": "address"
        },
        {
          "internalType": "address",
          "name": "to",
          "type": "address"
        },
        {
          "internalType": "uint256",
          "name": "tokens",
          "type": "uint256"
        }
      ],
      "name": "transferFrom",
      "outputs": [
        {
          "internalType": "bool",
          "name": "success",
          "type": "bool"
        }
      ],
      "stateMutability": "nonpayable",
      "type": "function"
    },
    {
      "inputs": [],
      "name": "version",
      "outputs": [
        {
          "internalType": "string",
          "name": "",
          "type": "string"
        }
      ],
      "stateMutability": "view",
      "type": "function"
    },
    {
      "stateMutability": "payable",
      "type": "receive"
    }
  ],
  "bytecode": {
    "object": "0x6080604052610400600b5562010000600c55600160ea1b600d553480156200002657600080fd5b50604080518082019091526006815265183c212a219960d11b602082015260019062000053908262000631565b50604080518082019091526012815271183c2134ba31b7b4b7102a37b5b2b7103b1960711b60208201526002906200008c908262000631565b506003805460ff191660089081179091556040805180820190915260018152601960f91b6020820152620000c1908262000631565b50620001fd60028054620000d590620005a3565b80601f01602080910402602001604051908101604052809291908181526020018280546200010390620005a3565b8015620001545780601f10620001285761010080835404028352916020019162000154565b820191906000526020600020905b8154815290600101906020018083116200013657829003601f168201915b5050505050600880546200016890620005a3565b80601f01602080910402602001604051908101604052809291908181526020018280546200019690620005a3565b8015620001e75780601f10620001bb57610100808354040283529160200191620001e7565b820191906000526020600020905b815481529060010190602001808311620001c957829003601f168201915b50505050506200023660201b62000af11760201c565b600055600354620002139060ff16600a62000810565b62000223906301406f4062000825565b60065562000230620002ac565b620008af565b8151602080840191909120825183830120604080517f8b73c3c69bb8fe3d512ecc4cf759cc79239f7b179b0ffacaa9a75d522b39400f818601528082019390935260608301919091524660808301523060a0808401919091528151808403909101815260c0909201905280519101205b92915050565b60006016819055601055600654620002c79060029062000855565b601155600d54600e5543600955601054620002e490600262000810565b600354620002f79060ff16600a62000810565b6200030490603262000825565b62000310919062000855565b6012556200031d6200031f565b565b6011546012546016546200033491906200086c565b118015620003445750601f601054105b156200039c576010546200035a9060016200086c565b60108190556200036c90600262000810565b6003546200037f9060ff16600a62000810565b6200038c90603262000825565b62000398919062000855565b6012555b601054620003ac9060016200086c565b620003b990600262000810565b600654620003c8919062000855565b600654620003d7919062000882565b601155600a54620003ea9060016200086c565b600a819055600b54620003fd9162000898565b6000036200040f576200040f62000422565b6200041c60014362000882565b40600f55565b60006009544362000434919062000882565b600b5490915060006200044982603c62000825565b905080831015620004d8576000836200046483606462000825565b62000470919062000855565b905060006200049c6103e86200048860648562000882565b6200057360201b62000b631790919060201c565b9050806107d0600e54620004b1919062000855565b620004bd919062000825565b600e54620004cc919062000882565b600e5550620005429050565b600081620004e885606462000825565b620004f4919062000855565b905060006200050c6103e86200048860648562000882565b9050806107d0600e5462000521919062000855565b6200052d919062000825565b600e546200053c91906200086c565b600e5550505b43600955600c54600e5410156200055a57600c54600e555b600d54600e5411156200056e57600d54600e555b505050565b60008183111562000586575080620002a6565b5090919050565b634e487b7160e01b600052604160045260246000fd5b600181811c90821680620005b857607f821691505b602082108103620005d957634e487b7160e01b600052602260045260246000fd5b50919050565b601f8211156200056e57600081815260208120601f850160051c81016020861015620006085750805b601f850160051c820191505b81811015620006295782815560010162000614565b505050505050565b81516001600160401b038111156200064d576200064d6200058d565b62000665816200065e8454620005a3565b84620005df565b602080601f8311600181146200069d5760008415620006845750858301515b600019600386901b1c1916600185901b17855562000629565b600085815260208120601f198616915b82811015620006ce57888601518255948401946001909101908401620006ad565b5085821015620006ed5787850151600019600388901b60f8161c191681555b5050505050600190811b01905550565b634e487b7160e01b600052601160045260246000fd5b600181815b8085111562000754578160001904821115620007385762000738620006fd565b808516156200074657918102915b93841c939080029062000718565b509250929050565b6000826200076d57506001620002a6565b816200077c57506000620002a6565b8160018114620007955760028114620007a057620007c0565b6001915050620002a6565b60ff841115620007b457620007b4620006fd565b50506001821b620002a6565b5060208310610133831016604e8410600b8410161715620007e5575081810a620002a6565b620007f1838362000713565b8060001904821115620008085762000808620006fd565b029392505050565b60006200081e83836200075c565b9392505050565b8082028115828204841417620002a657620002a6620006fd565b634e487b7160e01b600052601260045260246000fd5b6000826200086757620008676200083f565b500490565b80820180821115620002a657620002a6620006fd565b81810381811115620002a657620002a6620006fd565b600082620008aa57620008aa6200083f565b500690565b6117a180620008bf6000396000f3fe6080604052600436106102295760003560e01c80637d43002811610123578063b723b34e116100ab578063cb9ae7071161006f578063cb9ae70714610621578063d505accf14610637578063dc6e9cf914610659578063dd62ed3e1461066f578063f86ccd41146106b557600080fd5b8063b723b34e14610595578063bafedcaa146105b5578063bd45f636146105cb578063caa7a158146105eb578063cae9ca511461060157600080fd5b80638a769d35116100f25780638a769d351461051e5780638ae0368b1461053457806395d89b411461054a578063a9059cbb1461055f578063b5ade81b1461057f57600080fd5b80637d4300281461049c5780637ecebe00146104bc578063829965cc146104f257806387a2a9d61461050857600080fd5b8063313ce567116101b157806354fd4d501161017557806354fd4d50146103ee5780636386d2ac146104035780636de9f32b146104185780636fd396d61461042e57806370a082311461046657600080fd5b8063313ce5671461036c57806332e99708146103985780633644e515146103ad5780634ef37628146103c35780634fa972e1146103d857600080fd5b80631801fbe5116101f85780631801fbe5146102cc57806318160ddd146102ec57806323b872dd146103025780632d38bf7a1461032257806330adf81f1461033857600080fd5b806306fdde0314610238578063095ea7b314610263578063163aa00d1461029357806317da485f146102b757600080fd5b3661023357600080fd5b600080fd5b34801561024457600080fd5b5061024d6106cb565b60405161025a9190611256565b60405180910390f35b34801561026f57600080fd5b5061028361027e366004611285565b610759565b604051901515815260200161025a565b34801561029f57600080fd5b506102a960155481565b60405190815260200161025a565b3480156102c357600080fd5b506102a961076f565b3480156102d857600080fd5b506102836102e73660046112af565b610786565b3480156102f857600080fd5b506102a960065481565b34801561030e57600080fd5b5061028361031d3660046112d1565b610792565b34801561032e57600080fd5b506102a960105481565b34801561034457600080fd5b506102a97f6e71edae12b1b97f4d1f60370fef10105fa2faae0126114a169c64845d6126c981565b34801561037857600080fd5b506003546103869060ff1681565b60405160ff909116815260200161025a565b3480156103a457600080fd5b50600e546102a9565b3480156103b957600080fd5b506102a960005481565b3480156103cf57600080fd5b50600f546102a9565b3480156103e457600080fd5b506102a960115481565b3480156103fa57600080fd5b5061024d6107f8565b34801561040f57600080fd5b506016546102a9565b34801561042457600080fd5b506102a960165481565b34801561043a57600080fd5b5060135461044e906001600160a01b031681565b6040516001600160a01b03909116815260200161025a565b34801561047257600080fd5b506102a961048136600461130d565b6001600160a01b031660009081526004602052604090205490565b3480156104a857600080fd5b506102a96104b7366004611328565b610805565b3480156104c857600080fd5b506102a96104d736600461130d565b6001600160a01b031660009081526007602052604090205490565b3480156104fe57600080fd5b506102a9600a5481565b34801561051457600080fd5b506102a9600d5481565b34801561052a57600080fd5b506102a9600e5481565b34801561054057600080fd5b506102a9600f5481565b34801561055657600080fd5b5061024d61083e565b34801561056b57600080fd5b5061028361057a366004611285565b61084b565b34801561058b57600080fd5b506102a9600b5481565b3480156105a157600080fd5b506102836105b036600461134d565b610858565b3480156105c157600080fd5b506102a960145481565b3480156105d757600080fd5b506102836105e6366004611379565b6109bc565b3480156105f757600080fd5b506102a960125481565b34801561060d57600080fd5b5061028361061c3660046113ca565b610a08565b34801561062d57600080fd5b506102a960095481565b34801561064357600080fd5b50610657610652366004611495565b610ad9565b005b34801561066557600080fd5b506102a9600c5481565b34801561067b57600080fd5b506102a961068a366004611508565b6001600160a01b03918216600090815260056020908152604080832093909416825291909152205490565b3480156106c157600080fd5b506102a960175481565b600280546106d890611532565b80601f016020809104026020016040519081016040528092919081815260200182805461070490611532565b80156107515780601f1061072657610100808354040283529160200191610751565b820191906000526020600020905b81548152906001019060200180831161073457829003601f168201915b505050505081565b6000610766338484610b7b565b90505b92915050565b6000600e54600d546107819190611598565b905090565b60006107668333610858565b6001600160a01b03831660009081526005602090815260408083203384529091528120546107c19083906115ac565b6001600160a01b03851660009081526005602090815260408083203384529091529020556107f0848484610be4565b949350505050565b600880546106d890611532565b60008082848660405160200161081d939291906115bf565b60408051808303601f19018152919052805160209091012095945050505050565b600180546106d890611532565b6000610766338484610be4565b600080600f548385604051602001610872939291906115bf565b60408051601f1981840301815291815281516020928301206012546001600160a01b038716600090815260049094529190922054919250906108b59082906115e7565b6001600160a01b0385166000818152600460205260409081902092909255905130907fddf252ad1be2c89b69c2b068fc378daa952ba7f163c4a11628f55a4df523b3ef906109069085815260200190565b60405180910390a38060165461091c91906115e7565b6016819055601154101561092f57600080fd5b601380546001600160a01b0319166001600160a01b03861617905560148190554360155561095b610c8c565b600a54600f54604080516001600160a01b0388168152602081018590529081019290925260608201527fcf6fbb9dcea7d07263ab4f5c3a92f53af33dffc421d9d121e1c74b307e68189d9060800160405180910390a1506001949350505050565b6000808385876040516020016109d4939291906115bf565b604051602081830303815290604052805190602001209050828160001c11156109fc57600080fd5b50600195945050505050565b3360008181526005602090815260408083206001600160a01b038816808552925280832086905551919290917f8c5be1e5ebec7d5bd14f71427d1e84f3dd0314c0f7b2291e5b200ac8c7c3b92590610a639087815260200190565b60405180910390a3604051638f4ffcb160e01b81526001600160a01b03851690638f4ffcb190610a9d9033908790309088906004016115fa565b600060405180830381600087803b158015610ab757600080fd5b505af1158015610acb573d6000803e3d6000fd5b506001979650505050505050565b610ae887878787878787610d70565b50505050505050565b8151602092830120815191830191909120604080517f8b73c3c69bb8fe3d512ecc4cf759cc79239f7b179b0ffacaa9a75d522b39400f818601528082019390935260608301919091524660808301523060a0808401919091528151808403909101815260c09092019052805191012090565b600081831115610b74575080610769565b5090919050565b6001600160a01b03838116600081815260056020908152604080832094871680845294825280832086905551858152919392917f8c5be1e5ebec7d5bd14f71427d1e84f3dd0314c0f7b2291e5b200ac8c7c3b92591015b60405180910390a35060019392505050565b6001600160a01b038316600090815260046020526040812054610c089083906115ac565b6001600160a01b038086166000908152600460205260408082209390935590851681522054610c389083906115e7565b6001600160a01b0380851660008181526004602052604090819020939093559151908616907fddf252ad1be2c89b69c2b068fc378daa952ba7f163c4a11628f55a4df523b3ef90610bd29086815260200190565b601154601254601654610c9f91906115e7565b118015610cae5750601f601054105b15610cfb57601054610cc19060016115e7565b6010819055610cd190600261171b565b600354610ce29060ff16600a61171b565b610ced906032611727565b610cf79190611598565b6012555b601054610d099060016115e7565b610d1490600261171b565b600654610d219190611598565b600654610d2e91906115ac565b601155600a54610d3f9060016115e7565b600a819055600b54610d509161173e565b600003610d5f57610d5f610ed8565b610d6a6001436115ac565b40600f55565b42841015610db95760405162461bcd60e51b815260206004820152601160248201527014195c9b5a5d081a5cc8195e1c1a5c9959607a1b60448201526064015b60405180910390fd5b6001600160a01b038716600090815260076020526040812080547f6e71edae12b1b97f4d1f60370fef10105fa2faae0126114a169c64845d6126c9918a918a918a919086610e0683611752565b909155506040805160208101969096526001600160a01b0394851690860152929091166060840152608083015260a082015260c0810186905260e0016040516020818303038152906040529050876001600160a01b0316610e6c60005486868686610ff9565b6001600160a01b031614610ec25760405162461bcd60e51b815260206004820152601a60248201527f454950323631323a20696e76616c6964207369676e61747572650000000000006044820152606401610db0565b610ecd888888610b7b565b505050505050505050565b600060095443610ee891906115ac565b600b549091506000610efb82603c611727565b905080831015610f6d57600083610f13836064611727565b610f1d9190611598565b90506000610f386103e8610f326064856115ac565b90610b63565b9050806107d0600e54610f4b9190611598565b610f559190611727565b600e54610f6291906115ac565b600e5550610fca9050565b600081610f7b856064611727565b610f859190611598565b90506000610f9a6103e8610f326064856115ac565b9050806107d0600e54610fad9190611598565b610fb79190611727565b600e54610fc491906115e7565b600e5550505b43600955600c54600e541015610fe157600c54600e555b600d54600e541115610ff457600d54600e555b505050565b60008086838051906020012060405160200161102c92919061190160f01b81526002810192909252602282015260420190565b6040516020818303038152906040528051906020012090506110508187878761105b565b979650505050505050565b60007f7fffffffffffffffffffffffffffffff5d576e7357a4501ddfe92f46681b20a08211156110dc5760405162461bcd60e51b815260206004820152602660248201527f45435265636f7665723a20696e76616c6964207369676e6174757265202773276044820152652076616c756560d01b6064820152608401610db0565b8360ff16601b141580156110f457508360ff16601c14155b156111505760405162461bcd60e51b815260206004820152602660248201527f45435265636f7665723a20696e76616c6964207369676e6174757265202776276044820152652076616c756560d01b6064820152608401610db0565b6040805160008082526020820180845288905260ff871692820192909252606081018590526080810184905260019060a0016020604051602081039080840390855afa1580156111a4573d6000803e3d6000fd5b5050604051601f1901519150506001600160a01b0381166112075760405162461bcd60e51b815260206004820152601c60248201527f45435265636f7665723a20696e76616c6964207369676e6174757265000000006044820152606401610db0565b95945050505050565b6000815180845260005b818110156112365760208185018101518683018201520161121a565b506000602082860101526020601f19601f83011685010191505092915050565b6020815260006107666020830184611210565b80356001600160a01b038116811461128057600080fd5b919050565b6000806040838503121561129857600080fd5b6112a183611269565b946020939093013593505050565b600080604083850312156112c257600080fd5b50508035926020909101359150565b6000806000606084860312156112e657600080fd5b6112ef84611269565b92506112fd60208501611269565b9150604084013590509250925092565b60006020828403121561131f57600080fd5b61076682611269565b60008060006060848603121561133d57600080fd5b833592506112fd60208501611269565b6000806040838503121561136057600080fd5b8235915061137060208401611269565b90509250929050565b6000806000806080858703121561138f57600080fd5b8435935061139f60208601611269565b93969395505050506040820135916060013590565b634e487b7160e01b600052604160045260246000fd5b6000806000606084860312156113df57600080fd5b6113e884611269565b925060208401359150604084013567ffffffffffffffff8082111561140c57600080fd5b818601915086601f83011261142057600080fd5b813581811115611432576114326113b4565b604051601f8201601f19908116603f0116810190838211818310171561145a5761145a6113b4565b8160405282815289602084870101111561147357600080fd5b8260208601602083013760006020848301015280955050505050509250925092565b600080600080600080600060e0888a0312156114b057600080fd5b6114b988611269565b96506114c760208901611269565b95506040880135945060608801359350608088013560ff811681146114eb57600080fd5b9699959850939692959460a0840135945060c09093013592915050565b6000806040838503121561151b57600080fd5b61152483611269565b915061137060208401611269565b600181811c9082168061154657607f821691505b60208210810361156657634e487b7160e01b600052602260045260246000fd5b50919050565b634e487b7160e01b600052601260045260246000fd5b634e487b7160e01b600052601160045260246000fd5b6000826115a7576115a761156c565b500490565b8181038181111561076957610769611582565b92835260609190911b6bffffffffffffffffffffffff19166020830152603482015260540190565b8082018082111561076957610769611582565b6001600160a01b038581168252602082018590528316604082015260806060820181905260009061162d90830184611210565b9695505050505050565b600181815b8085111561167257816000190482111561165857611658611582565b8085161561166557918102915b93841c939080029061163c565b509250929050565b60008261168957506001610769565b8161169657506000610769565b81600181146116ac57600281146116b6576116d2565b6001915050610769565b60ff8411156116c7576116c7611582565b50506001821b610769565b5060208310610133831016604e8410600b84101617156116f5575081810a610769565b6116ff8383611637565b806000190482111561171357611713611582565b029392505050565b6000610766838361167a565b808202811582820484141761076957610769611582565b60008261174d5761174d61156c565b500690565b60006001820161176457611764611582565b506001019056fea2646970667358221220f972a25a9c3ef496328f5be21e7e31614cc1288cf69cf8c569c2b7f200a6f3ab64736f6c63430008110033",
    "linkReferences": {}
  },
  "methodIdentifiers": {
    "DOMAIN_SEPARATOR()": "3644e515",
    "PERMIT_TYPEHASH()": "30adf81f",
    "_BLOCKS_PER_READJUSTMENT()": "b5ade81b",
    "_MAXIMUM_TARGET()": "87a2a9d6",
    "_MINIMUM_TARGET()": "dc6e9cf9",
    "allowance(address,address)": "dd62ed3e",
    "amountDeposited()": "f86ccd41",
    "approve(address,uint256)": "095ea7b3",
    "approveAndCall(address,uint256,bytes)": "cae9ca51",
    "balanceOf(address)": "70a08231",
    "challengeNumber()": "8ae0368b",
    "checkMintSolution(uint256,address,bytes32,uint256)": "bd45f636",
    "currentMiningReward()": "caa7a158",
    "decimals()": "313ce567",
    "epochCount()": "829965cc",
    "getChallengeNumber()": "4ef37628",
    "getMiningDifficulty()": "17da485f",
    "getMiningTarget()": "32e99708",
    "getMintDigest(uint256,address,bytes32)": "7d430028",
    "lastRewardAmount()": "bafedcaa",
    "lastRewardEthBlockNumber()": "163aa00d",
    "lastRewardTo()": "6fd396d6",
    "latestDifficultyPeriodStarted()": "cb9ae707",
    "maxSupplyForEra()": "4fa972e1",
    "minedSupply()": "6386d2ac",
    "miningTarget()": "8a769d35",
    "mint(uint256,bytes32)": "1801fbe5",
    "mintTo(uint256,address)": "b723b34e",
    "name()": "06fdde03",
    "nonces(address)": "7ecebe00",
    "permit(address,address,uint256,uint256,uint8,bytes32,bytes32)": "d505accf",
    "rewardEra()": "2d38bf7a",
    "symbol()": "95d89b41",
    "tokensMinted()": "6de9f32b",
    "totalSupply()": "18160ddd",
    "transfer(address,uint256)": "a9059cbb",
    "transferFrom(address,address,uint256)": "23b872dd",
    "version()": "54fd4d50"
  },
  "id": 2
}