{
  "abi": [
    {
      "inputs": [],
      "name": "DOMAIN_SEPARATOR",
      "outputs": [
        {
          "internalType": "bytes32",
          "name": "",
          "type": "bytes32"
        }
      ],
      "stateMutability": "view",
      "type": "function"
    }
  ],
  "bytecode": {
    "object": "0x6080604052348015600f57600080fd5b50607d8061001e6000396000f3fe6080604052348015600f57600080fd5b506004361060285760003560e01c80633644e51514602d575b600080fd5b603560005481565b60405190815260200160405180910390f3fea2646970667358221220cc2d90fecebaea3fe67d7ad9154568df02ddadf6f93ab74f3af83e31e7815d5f64736f6c63430008110033",
    "linkReferences": {}
  },
  "methodIdentifiers": {
    "DOMAIN_SEPARATOR()": "3644e515"
  },
  "id": 2
}