{
  "abi": [
    {
      "inputs": [
        {
          "internalType": "address",
          "name": "_mintableNFT",
          "type": "address"
        },
        {
          "internalType": "address",
          "name": "_currencyToken",
          "type": "address"
        }
      ],
      "stateMutability": "nonpayable",
      "type": "constructor"
    },
    {
      "anonymous": false,
      "inputs": [],
      "name": "AuctionPaused",
      "type": "event"
    },
    {
      "anonymous": false,
      "inputs": [],
      "name": "AuctionStarted",
      "type": "event"
    },
    {
      "anonymous": false,
      "inputs": [
        {
          "indexed": false,
          "internalType": "address",
          "name": "buyer",
          "type": "address"
        },
        {
          "indexed": false,
          "internalType": "uint256",
          "name": "tokenId",
          "type": "uint256"
        },
        {
          "indexed": false,
          "internalType": "uint256",
          "name": "price",
          "type": "uint256"
        }
      ],
      "name": "Buyout",
      "type": "event"
    },
    {
      "anonymous": false,
      "inputs": [
        {
          "indexed": true,
          "internalType": "address",
          "name": "previousOwner",
          "type": "address"
        },
        {
          "indexed": true,
          "internalType": "address",
          "name": "newOwner",
          "type": "address"
        }
      ],
      "name": "OwnershipTransferred",
      "type": "event"
    },
    {
      "anonymous": false,
      "inputs": [
        {
          "indexed": false,
          "internalType": "uint32",
          "name": "pct",
          "type": "uint32"
        }
      ],
      "name": "SetBurnPercent",
      "type": "event"
    },
    {
      "anonymous": false,
      "inputs": [
        {
          "indexed": false,
          "internalType": "address",
          "name": "recipient",
          "type": "address"
        }
      ],
      "name": "SetFundsRecipient",
      "type": "event"
    },
    {
      "inputs": [],
      "name": "auctionStarted",
      "outputs": [
        {
          "internalType": "bool",
          "name": "",
          "type": "bool"
        }
      ],
      "stateMutability": "view",
      "type": "function"
    },
    {
      "inputs": [],
      "name": "burnPct",
      "outputs": [
        {
          "internalType": "uint32",
          "name": "",
          "type": "uint32"
        }
      ],
      "stateMutability": "view",
      "type": "function"
    },
    {
      "inputs": [
        {
          "internalType": "uint256",
          "name": "amount",
          "type": "uint256"
        },
        {
          "internalType": "address",
          "name": "recipient",
          "type": "address"
        }
      ],
      "name": "buyout",
      "outputs": [],
      "stateMutability": "nonpayable",
      "type": "function"
    },
    {
      "inputs": [],
      "name": "currencyToken",
      "outputs": [
        {
          "internalType": "address",
          "name": "",
          "type": "address"
        }
      ],
      "stateMutability": "view",
      "type": "function"
    },
    {
      "inputs": [],
      "name": "fundsRecipient",
      "outputs": [
        {
          "internalType": "address",
          "name": "",
          "type": "address"
        }
      ],
      "stateMutability": "view",
      "type": "function"
    },
    {
      "inputs": [
        {
          "internalType": "uint256",
          "name": "blockNumber",
          "type": "uint256"
        }
      ],
      "name": "getMintPrice",
      "outputs": [
        {
          "internalType": "uint256",
          "name": "",
          "type": "uint256"
        }
      ],
      "stateMutability": "view",
      "type": "function"
    },
    {
      "inputs": [],
      "name": "lastEpochStartBlockNumber",
      "outputs": [
        {
          "internalType": "uint256",
          "name": "",
          "type": "uint256"
        }
      ],
      "stateMutability": "view",
      "type": "function"
    },
    {
      "inputs": [],
      "name": "mintableNFT",
      "outputs": [
        {
          "internalType": "address",
          "name": "",
          "type": "address"
        }
      ],
      "stateMutability": "view",
      "type": "function"
    },
    {
      "inputs": [],
      "name": "owner",
      "outputs": [
        {
          "internalType": "address",
          "name": "",
          "type": "address"
        }
      ],
      "stateMutability": "view",
      "type": "function"
    },
    {
      "inputs": [],
      "name": "pauseAuction",
      "outputs": [],
      "stateMutability": "nonpayable",
      "type": "function"
    },
    {
      "inputs": [
        {
          "internalType": "address",
          "name": "from",
          "type": "address"
        },
        {
          "internalType": "uint256",
          "name": "amount",
          "type": "uint256"
        },
        {
          "internalType": "address",
          "name": "token",
          "type": "address"
        },
        {
          "internalType": "bytes",
          "name": "",
          "type": "bytes"
        }
      ],
      "name": "receiveApproval",
      "outputs": [
        {
          "internalType": "bool",
          "name": "success",
          "type": "bool"
        }
      ],
      "stateMutability": "nonpayable",
      "type": "function"
    },
    {
      "inputs": [],
      "name": "renounceOwnership",
      "outputs": [],
      "stateMutability": "nonpayable",
      "type": "function"
    },
    {
      "inputs": [
        {
          "internalType": "uint32",
          "name": "_pct",
          "type": "uint32"
        }
      ],
      "name": "setBurnPct",
      "outputs": [],
      "stateMutability": "nonpayable",
      "type": "function"
    },
    {
      "inputs": [
        {
          "internalType": "address",
          "name": "_recipient",
          "type": "address"
        }
      ],
      "name": "setFundsRecipient",
      "outputs": [],
      "stateMutability": "nonpayable",
      "type": "function"
    },
    {
      "inputs": [],
      "name": "startAuction",
      "outputs": [],
      "stateMutability": "nonpayable",
      "type": "function"
    },
    {
      "inputs": [
        {
          "internalType": "address",
          "name": "newOwner",
          "type": "address"
        }
      ],
      "name": "transferOwnership",
      "outputs": [],
      "stateMutability": "nonpayable",
      "type": "function"
    }
  ],
  "bytecode": {
    "object": "0x60c06040526001805463ffffffff60a01b191661027160a31b17905534801561002757600080fd5b506040516111a03803806111a0833981016040819052610046916100d2565b61004f33610066565b6001600160a01b039182166080521660a052610105565b600080546001600160a01b038381166001600160a01b0319831681178455604051919092169283917f8be0079c531659141344cd1fd0a4f28419497f9722a3daafe3b4186f6b6457e09190a35050565b80516001600160a01b03811681146100cd57600080fd5b919050565b600080604083850312156100e557600080fd5b6100ee836100b6565b91506100fc602084016100b6565b90509250929050565b60805160a05161103e610162600039600081816101960152818161042c0152818161049b015281816106f001528181610b030152610bb101526000818161023601528181610789015281816108470152610927015261103e6000f3fe608060405234801561001057600080fd5b50600436106101005760003560e01c80638da5cb5b11610097578063a22cf5be11610066578063a22cf5be14610231578063b9ae736414610258578063ee2679bc14610260578063f2fde38b1461026d57600080fd5b80638da5cb5b146101c85780638f4ffcb1146101d957806393c39bf9146101fc5780639618b31c1461020557600080fd5b8063559e775b116100d3578063559e775b146101705780636b2fa374146101915780636b64c769146101b8578063715018a6146101c057600080fd5b806310a7eb5d1461010557806312a8ec9e1461011a5780633700d5451461012d5780633b6fd2cf14610140575b600080fd5b610118610113366004610cee565b610280565b005b610118610128366004610d09565b6102dd565b61011861013b366004610d2f565b610388565b600154610153906001600160a01b031681565b6040516001600160a01b0390911681526020015b60405180910390f35b61018361017e366004610d5b565b610397565b604051908152602001610167565b6101537f000000000000000000000000000000000000000000000000000000000000000081565b6101186103fb565b61011861040d565b6000546001600160a01b0316610153565b6101ec6101e7366004610d8a565b61041f565b6040519015158152602001610167565b61018360025481565b60015461021c90600160a01b900463ffffffff1681565b60405163ffffffff9091168152602001610167565b6101537f000000000000000000000000000000000000000000000000000000000000000081565b610118610530565b6003546101ec9060ff1681565b61011861027b366004610cee565b610540565b6102886105b9565b600180546001600160a01b0319166001600160a01b0383169081179091556040519081527f87f6be1fd3abdc257623198837c173b4f38197a4bb2a671a7d79a007ee4b0111906020015b60405180910390a150565b6102e56105b9565b6127108163ffffffff1611156103345760405162461bcd60e51b815260206004820152600f60248201526e125b9d985b1a59081c195c98d95b9d608a1b60448201526064015b60405180910390fd5b6001805463ffffffff60a01b1916600160a01b63ffffffff8416908102919091179091556040519081527f5291c3ecd6662169f313c901bab0bd7b80ca8022c470e4e8fbe883605760fbb5906020016102d2565b610393338383610613565b5050565b60035460009060ff166103b25750660775f05a074000919050565b6000600254836103c29190610e7c565b90506103f4660775f05a0740006103ef6103dd600285610f73565b6103e8906064610f82565b60c86108eb565b6108eb565b9392505050565b6104036105b9565b61040b610925565b565b6104156105b9565b61040b6000610a3d565b6000336001600160a01b037f000000000000000000000000000000000000000000000000000000000000000016146104995760405162461bcd60e51b815260206004820152601e60248201527f496e76616c69642072656365697665417070726f76616c206f726967696e0000604482015260640161032b565b7f00000000000000000000000000000000000000000000000000000000000000006001600160a01b0316836001600160a01b03161461051a5760405162461bcd60e51b815260206004820152601b60248201527f496e76616c696420746f6b656e20747970652072656365697665640000000000604482015260640161032b565b610525858587610613565b506001949350505050565b6105386105b9565b61040b610a8d565b6105486105b9565b6001600160a01b0381166105ad5760405162461bcd60e51b815260206004820152602660248201527f4f776e61626c653a206e6577206f776e657220697320746865207a65726f206160448201526564647265737360d01b606482015260840161032b565b6105b681610a3d565b50565b6000546001600160a01b0316331461040b5760405162461bcd60e51b815260206004820181905260248201527f4f776e61626c653a2063616c6c6572206973206e6f7420746865206f776e6572604482015260640161032b565b43600061061f82610397565b9050808410156106685760405162461bcd60e51b815260206004820152601460248201527324b739bab33334b1b4b2b73a1030b6b7bab73a1760611b604482015260640161032b565b60035460ff166106ba5760405162461bcd60e51b815260206004820152601760248201527f41756374696f6e206973206e6f7420737461727465642e000000000000000000604482015260640161032b565b6003805460ff191690556040516323b872dd60e01b81526001600160a01b038681166004830152306024830152604482018390527f000000000000000000000000000000000000000000000000000000000000000016906323b872dd906064016020604051808303816000875af1158015610739573d6000803e3d6000fd5b505050506040513d601f19601f8201168201806040525081019061075d9190610f95565b5061076781610ac2565b6040516335313c2160e11b81526001600160a01b0384811660048301526000917f000000000000000000000000000000000000000000000000000000000000000090911690636a627842906024016020604051808303816000875af11580156107d4573d6000803e3d6000fd5b505050506040513d601f19601f820116820180604052508101906107f89190610fb7565b604080516001600160a01b0387168152602081018390529081018490529091507fd1cfbb468dd776e3efe927f92120359cbc23ee21d5124a3826a6d55f5c5247dd9060600160405180910390a17f00000000000000000000000000000000000000000000000000000000000000006001600160a01b0316630e7e0a936040518163ffffffff1660e01b81526004016020604051808303816000875af11580156108a5573d6000803e3d6000fd5b505050506040513d601f19601f820116820180604052508101906108c99190610f95565b156108db576108d6610925565b6108e3565b6108e3610a8d565b505050505050565b6000821561091957816108ff600185610e7c565b6109099190610fe6565b610914906001610f82565b61091c565b60005b90505b92915050565b7f00000000000000000000000000000000000000000000000000000000000000006001600160a01b0316630e7e0a936040518163ffffffff1660e01b81526004016020604051808303816000875af1158015610985573d6000803e3d6000fd5b505050506040513d601f19601f820116820180604052508101906109a99190610f95565b610a015760405162461bcd60e51b815260206004820152602360248201527f5468657265206973206e6f206d696e7461626c65206e667420617661696c616260448201526236329760e91b606482015260840161032b565b6003805460ff19166001179055436002556040517fc8f99b9ac2a284b93c3652b9f064a6706724088cdafa9e0a8437c026191b2f0390600090a1565b600080546001600160a01b038381166001600160a01b0319831681178455604051919092169283917f8be0079c531659141344cd1fd0a4f28419497f9722a3daafe3b4186f6b6457e09190a35050565b6003805460ff191690556040517f749d6d79623c8cbd2345906702c70ae75d4254a6c409047c16d52fa5a37ef69890600090a1565b600154600090610ae3908390600160a01b900463ffffffff16612710610c24565b60405163a9059cbb60e01b815260006004820152602481018290529091507f00000000000000000000000000000000000000000000000000000000000000006001600160a01b03169063a9059cbb906044016020604051808303816000875af1158015610b54573d6000803e3d6000fd5b505050506040513d601f19601f82011682018060405250810190610b789190610f95565b506000610b858284610e7c565b60015460405163a9059cbb60e01b81526001600160a01b039182166004820152602481018390529192507f0000000000000000000000000000000000000000000000000000000000000000169063a9059cbb906044016020604051808303816000875af1158015610bfa573d6000803e3d6000fd5b505050506040513d601f19601f82011682018060405250810190610c1e9190610f95565b50505050565b6000808060001985870985870292508281108382030391505080600003610c5e57838281610c5457610c54610fd0565b04925050506103f4565b808411610c6a57600080fd5b600084868809600260036001881981018916988990049182028318808302840302808302840302808302840302808302840302808302840302918202909203026000889003889004909101858311909403939093029303949094049190911702949350505050565b80356001600160a01b0381168114610ce957600080fd5b919050565b600060208284031215610d0057600080fd5b61091c82610cd2565b600060208284031215610d1b57600080fd5b813563ffffffff811681146103f457600080fd5b60008060408385031215610d4257600080fd5b82359150610d5260208401610cd2565b90509250929050565b600060208284031215610d6d57600080fd5b5035919050565b634e487b7160e01b600052604160045260246000fd5b60008060008060808587031215610da057600080fd5b610da985610cd2565b935060208501359250610dbe60408601610cd2565b9150606085013567ffffffffffffffff80821115610ddb57600080fd5b818701915087601f830112610def57600080fd5b813581811115610e0157610e01610d74565b604051601f8201601f19908116603f01168101908382118183101715610e2957610e29610d74565b816040528281528a6020848701011115610e4257600080fd5b82602086016020830137600060208483010152809550505050505092959194509250565b634e487b7160e01b600052601160045260246000fd5b8181038181111561091f5761091f610e66565b600181815b80851115610eca578160001904821115610eb057610eb0610e66565b80851615610ebd57918102915b93841c9390800290610e94565b509250929050565b600082610ee15750600161091f565b81610eee5750600061091f565b8160018114610f045760028114610f0e57610f2a565b600191505061091f565b60ff841115610f1f57610f1f610e66565b50506001821b61091f565b5060208310610133831016604e8410600b8410161715610f4d575081810a61091f565b610f578383610e8f565b8060001904821115610f6b57610f6b610e66565b029392505050565b600061091c60ff841683610ed2565b8082018082111561091f5761091f610e66565b600060208284031215610fa757600080fd5b815180151581146103f457600080fd5b600060208284031215610fc957600080fd5b5051919050565b634e487b7160e01b600052601260045260246000fd5b60008261100357634e487b7160e01b600052601260045260246000fd5b50049056fea2646970667358221220efd93dfddf0a13e5f05f35914e67e3187f765e1a8719390d8dbcb09fa66c92ff64736f6c63430008110033",
    "linkReferences": {}
  },
  "methodIdentifiers": {
    "auctionStarted()": "ee2679bc",
    "burnPct()": "9618b31c",
    "buyout(uint256,address)": "3700d545",
    "currencyToken()": "6b2fa374",
    "fundsRecipient()": "3b6fd2cf",
    "getMintPrice(uint256)": "559e775b",
    "lastEpochStartBlockNumber()": "93c39bf9",
    "mintableNFT()": "a22cf5be",
    "owner()": "8da5cb5b",
    "pauseAuction()": "b9ae7364",
    "receiveApproval(address,uint256,address,bytes)": "8f4ffcb1",
    "renounceOwnership()": "715018a6",
    "setBurnPct(uint32)": "12a8ec9e",
    "setFundsRecipient(address)": "10a7eb5d",
    "startAuction()": "6b64c769",
    "transferOwnership(address)": "f2fde38b"
  },
  "id": 0
}