{
  "abi": [
    {
      "inputs": [
        {
          "internalType": "address",
          "name": "_mintableNFT",
          "type": "address"
        },
        {
          "internalType": "address",
          "name": "_currencyToken",
          "type": "address"
        }
      ],
      "stateMutability": "nonpayable",
      "type": "constructor"
    },
    {
      "anonymous": false,
      "inputs": [],
      "name": "AuctionPaused",
      "type": "event"
    },
    {
      "anonymous": false,
      "inputs": [],
      "name": "AuctionStarted",
      "type": "event"
    },
    {
      "anonymous": false,
      "inputs": [
        {
          "indexed": false,
          "internalType": "address",
          "name": "buyer",
          "type": "address"
        },
        {
          "indexed": false,
          "internalType": "uint256",
          "name": "tokenId",
          "type": "uint256"
        },
        {
          "indexed": false,
          "internalType": "uint256",
          "name": "price",
          "type": "uint256"
        }
      ],
      "name": "Buyout",
      "type": "event"
    },
    {
      "anonymous": false,
      "inputs": [
        {
          "indexed": true,
          "internalType": "address",
          "name": "previousOwner",
          "type": "address"
        },
        {
          "indexed": true,
          "internalType": "address",
          "name": "newOwner",
          "type": "address"
        }
      ],
      "name": "OwnershipTransferred",
      "type": "event"
    },
    {
      "inputs": [],
      "name": "auctionStarted",
      "outputs": [
        {
          "internalType": "bool",
          "name": "",
          "type": "bool"
        }
      ],
      "stateMutability": "view",
      "type": "function"
    },
    {
      "inputs": [
        {
          "internalType": "uint256",
          "name": "amount",
          "type": "uint256"
        },
        {
          "internalType": "address",
          "name": "recipient",
          "type": "address"
        }
      ],
      "name": "buyout",
      "outputs": [],
      "stateMutability": "nonpayable",
      "type": "function"
    },
    {
      "inputs": [],
      "name": "currencyToken",
      "outputs": [
        {
          "internalType": "address",
          "name": "",
          "type": "address"
        }
      ],
      "stateMutability": "view",
      "type": "function"
    },
    {
      "inputs": [
        {
          "internalType": "uint256",
          "name": "blockNumber",
          "type": "uint256"
        }
      ],
      "name": "getMintPrice",
      "outputs": [
        {
          "internalType": "uint256",
          "name": "",
          "type": "uint256"
        }
      ],
      "stateMutability": "view",
      "type": "function"
    },
    {
      "inputs": [],
      "name": "lastEpochStartBlockNumber",
      "outputs": [
        {
          "internalType": "uint256",
          "name": "",
          "type": "uint256"
        }
      ],
      "stateMutability": "view",
      "type": "function"
    },
    {
      "inputs": [],
      "name": "mintableNFT",
      "outputs": [
        {
          "internalType": "address",
          "name": "",
          "type": "address"
        }
      ],
      "stateMutability": "view",
      "type": "function"
    },
    {
      "inputs": [],
      "name": "owner",
      "outputs": [
        {
          "internalType": "address",
          "name": "",
          "type": "address"
        }
      ],
      "stateMutability": "view",
      "type": "function"
    },
    {
      "inputs": [],
      "name": "pauseAuction",
      "outputs": [],
      "stateMutability": "nonpayable",
      "type": "function"
    },
    {
      "inputs": [
        {
          "internalType": "address",
          "name": "from",
          "type": "address"
        },
        {
          "internalType": "uint256",
          "name": "amount",
          "type": "uint256"
        },
        {
          "internalType": "address",
          "name": "token",
          "type": "address"
        },
        {
          "internalType": "bytes",
          "name": "data",
          "type": "bytes"
        }
      ],
      "name": "receiveApproval",
      "outputs": [
        {
          "internalType": "bool",
          "name": "success",
          "type": "bool"
        }
      ],
      "stateMutability": "nonpayable",
      "type": "function"
    },
    {
      "inputs": [],
      "name": "renounceOwnership",
      "outputs": [],
      "stateMutability": "nonpayable",
      "type": "function"
    },
    {
      "inputs": [],
      "name": "startAuction",
      "outputs": [],
      "stateMutability": "nonpayable",
      "type": "function"
    },
    {
      "inputs": [
        {
          "internalType": "address",
          "name": "newOwner",
          "type": "address"
        }
      ],
      "name": "transferOwnership",
      "outputs": [],
      "stateMutability": "nonpayable",
      "type": "function"
    }
  ],
  "bytecode": {
    "object": "0x60c060405234801561001057600080fd5b50604051610d73380380610d7383398101604081905261002f916100bb565b6100383361004f565b6001600160a01b039182166080521660a0526100ee565b600080546001600160a01b038381166001600160a01b0319831681178455604051919092169283917f8be0079c531659141344cd1fd0a4f28419497f9722a3daafe3b4186f6b6457e09190a35050565b80516001600160a01b03811681146100b657600080fd5b919050565b600080604083850312156100ce57600080fd5b6100d78361009f565b91506100e56020840161009f565b90509250929050565b60805160a051610c3761013c6000396000818160f901528181610273015281816102e701526104e20152600081816101850152818161057201528181610630015261076a0152610c376000f3fe608060405234801561001057600080fd5b50600436106100b45760003560e01c80638f4ffcb1116100715780638f4ffcb11461015457806393c39bf914610177578063a22cf5be14610180578063b9ae7364146101a7578063ee2679bc146101af578063f2fde38b146101bc57600080fd5b80633700d545146100b9578063559e775b146100ce5780636b2fa374146100f45780636b64c76914610133578063715018a61461013b5780638da5cb5b14610143575b600080fd5b6100cc6100c7366004610923565b6101cf565b005b6100e16100dc36600461094f565b6101de565b6040519081526020015b60405180910390f35b61011b7f000000000000000000000000000000000000000000000000000000000000000081565b6040516001600160a01b0390911681526020016100eb565b6100cc610242565b6100cc610254565b6000546001600160a01b031661011b565b61016761016236600461097e565b610266565b60405190151581526020016100eb565b6100e160015481565b61011b7f000000000000000000000000000000000000000000000000000000000000000081565b6100cc61037c565b6002546101679060ff1681565b6100cc6101ca366004610a5a565b61038c565b6101da338383610405565b5050565b60025460009060ff166101f95750660775f05a074000919050565b6000600154836102099190610a8b565b905061023b660775f05a074000610236610224600285610b82565b61022f906064610b91565b60c86106d4565b6106d4565b9392505050565b61024a61070e565b610252610768565b565b61025c61070e565b6102526000610882565b6000336001600160a01b037f000000000000000000000000000000000000000000000000000000000000000016146102e55760405162461bcd60e51b815260206004820152601760248201527f496e76616c69642072656365697665417070726f76616c00000000000000000060448201526064015b60405180910390fd5b7f00000000000000000000000000000000000000000000000000000000000000006001600160a01b0316836001600160a01b0316146103665760405162461bcd60e51b815260206004820152601b60248201527f496e76616c696420746f6b656e2074797065207265636569766564000000000060448201526064016102dc565b610371858587610405565b506001949350505050565b61038461070e565b6102526108d2565b61039461070e565b6001600160a01b0381166103f95760405162461bcd60e51b815260206004820152602660248201527f4f776e61626c653a206e6577206f776e657220697320746865207a65726f206160448201526564647265737360d01b60648201526084016102dc565b61040281610882565b50565b436000610411826101de565b90508084101561045a5760405162461bcd60e51b815260206004820152601460248201527324b739bab33334b1b4b2b73a1030b6b7bab73a1760611b60448201526064016102dc565b60025460ff166104ac5760405162461bcd60e51b815260206004820152601760248201527f41756374696f6e206973206e6f7420737461727465642e00000000000000000060448201526064016102dc565b6002805460ff191690556040516323b872dd60e01b81526001600160a01b038681166004830152306024830152604482018390527f000000000000000000000000000000000000000000000000000000000000000016906323b872dd906064016020604051808303816000875af115801561052b573d6000803e3d6000fd5b505050506040513d601f19601f8201168201806040525081019061054f9190610ba4565b506040516335313c2160e11b81526001600160a01b0384811660048301526000917f000000000000000000000000000000000000000000000000000000000000000090911690636a627842906024016020604051808303816000875af11580156105bd573d6000803e3d6000fd5b505050506040513d601f19601f820116820180604052508101906105e19190610bc6565b604080516001600160a01b0387168152602081018390529081018490529091507fd1cfbb468dd776e3efe927f92120359cbc23ee21d5124a3826a6d55f5c5247dd9060600160405180910390a17f00000000000000000000000000000000000000000000000000000000000000006001600160a01b0316630e7e0a936040518163ffffffff1660e01b81526004016020604051808303816000875af115801561068e573d6000803e3d6000fd5b505050506040513d601f19601f820116820180604052508101906106b29190610ba4565b156106c4576106bf610768565b6106cc565b6106cc6108d2565b505050505050565b6000821561070257816106e8600185610a8b565b6106f29190610bdf565b6106fd906001610b91565b610705565b60005b90505b92915050565b6000546001600160a01b031633146102525760405162461bcd60e51b815260206004820181905260248201527f4f776e61626c653a2063616c6c6572206973206e6f7420746865206f776e657260448201526064016102dc565b7f00000000000000000000000000000000000000000000000000000000000000006001600160a01b0316630e7e0a936040518163ffffffff1660e01b81526004016020604051808303816000875af11580156107c8573d6000803e3d6000fd5b505050506040513d601f19601f820116820180604052508101906107ec9190610ba4565b6108445760405162461bcd60e51b815260206004820152602360248201527f5468657265206973206e6f206d696e7461626c65206e667420617661696c616260448201526236329760e91b60648201526084016102dc565b6002805460ff191660019081179091554390556040517fc8f99b9ac2a284b93c3652b9f064a6706724088cdafa9e0a8437c026191b2f0390600090a1565b600080546001600160a01b038381166001600160a01b0319831681178455604051919092169283917f8be0079c531659141344cd1fd0a4f28419497f9722a3daafe3b4186f6b6457e09190a35050565b6002805460ff191690556040517f749d6d79623c8cbd2345906702c70ae75d4254a6c409047c16d52fa5a37ef69890600090a1565b80356001600160a01b038116811461091e57600080fd5b919050565b6000806040838503121561093657600080fd5b8235915061094660208401610907565b90509250929050565b60006020828403121561096157600080fd5b5035919050565b634e487b7160e01b600052604160045260246000fd5b6000806000806080858703121561099457600080fd5b61099d85610907565b9350602085013592506109b260408601610907565b9150606085013567ffffffffffffffff808211156109cf57600080fd5b818701915087601f8301126109e357600080fd5b8135818111156109f5576109f5610968565b604051601f8201601f19908116603f01168101908382118183101715610a1d57610a1d610968565b816040528281528a6020848701011115610a3657600080fd5b82602086016020830137600060208483010152809550505050505092959194509250565b600060208284031215610a6c57600080fd5b61070582610907565b634e487b7160e01b600052601160045260246000fd5b8181038181111561070857610708610a75565b600181815b80851115610ad9578160001904821115610abf57610abf610a75565b80851615610acc57918102915b93841c9390800290610aa3565b509250929050565b600082610af057506001610708565b81610afd57506000610708565b8160018114610b135760028114610b1d57610b39565b6001915050610708565b60ff841115610b2e57610b2e610a75565b50506001821b610708565b5060208310610133831016604e8410600b8410161715610b5c575081810a610708565b610b668383610a9e565b8060001904821115610b7a57610b7a610a75565b029392505050565b600061070560ff841683610ae1565b8082018082111561070857610708610a75565b600060208284031215610bb657600080fd5b8151801515811461023b57600080fd5b600060208284031215610bd857600080fd5b5051919050565b600082610bfc57634e487b7160e01b600052601260045260246000fd5b50049056fea2646970667358221220cda1b9e01a787ef69bd3664829e436df93039276b313a08d1ffcaf147aa0d83964736f6c63430008110033",
    "linkReferences": {}
  },
  "methodIdentifiers": {
    "auctionStarted()": "ee2679bc",
    "buyout(uint256,address)": "3700d545",
    "currencyToken()": "6b2fa374",
    "getMintPrice(uint256)": "559e775b",
    "lastEpochStartBlockNumber()": "93c39bf9",
    "mintableNFT()": "a22cf5be",
    "owner()": "8da5cb5b",
    "pauseAuction()": "b9ae7364",
    "receiveApproval(address,uint256,address,bytes)": "8f4ffcb1",
    "renounceOwnership()": "715018a6",
    "startAuction()": "6b64c769",
    "transferOwnership(address)": "f2fde38b"
  },
  "id": 0
}